:020000040800F2
:10000000A8040020891E00085506000857060008AD
:100010005B0600085F060008630600080000000099
:100020000000000000000000000000006906000859
:1000300067060008000000006B0600086D06000857
:100040006F060008710600087306000875060008B0
:1000500077060008790600087B0600087D06000880
:100060007F06000881060008830600088506000850
:1000700087060008890600088B0600088D06000820
:100080008F0600089106000893060008A31E0008CA
:10009000A31E0008A31E0008A31E00089D0600085A
:1000A0009F060008A1060008A3060008A506000890
:1000B000A7060008A9060008AB060008AD06000860
:1000C000AF060008B1060008B3060008B506000830
:1000D000B7060008B9060008BB060008BD06000800
:1000E000BF060008C1060008C3060008DFF80CD0F0
:1000F00002F00CFA0048004741040008A804002060
:1001000070B504460D46E1B2C74801F007FD00BFD7
:100110004021C54801F070FD0028F9D0204670BD8F
:1001200008B50021009100EBC001C900009102E078
:100130000099491E009100990029F9D108BD08B520
:1001400000210091B9494143009102E00099491E04
:10015000009100990029F9D108BD08B517208DF844
:10016000000002208DF8010000208DF8020001201F
:100170008DF80300684600F0BCFA25208DF80000D9
:1001800000208DF801008DF8020001208DF8030099
:10019000684600F0AEFA1C208DF8000001208DF8B2
:1001A000010000208DF8020001208DF80300684650
:1001B00000F09FFA08BD10B54FF4803001F03AF816
:1001C00001F077F80446012C25D1102000F09CFBAB
:1001D000022000F085FB002001F0B1F8002001F0C2
:1001E000C0F84FF4A06001F0B3F84FF4E011200420
:1001F00001F088F8012001F091F800BF392001F0EA
:100200003CF80028FAD0022001F08BF800BF01F082
:1002100091F80828FBD1012145F20D0001F054F9B5
:1002200010BD10B50446C4F10100C2B201218048DE
:1002300000F043FF10BD10B5044622464FF4007194
:100240007C4800F03AFF10BD08B501217A4800F063
:1002500054FF0120ADF8000003208DF802001020AB
:100260008DF803006946724800F078FE4FF4007084
:10027000ADF8000003208DF8020010208DF8030077
:1002800069466C4800F06AFE0120FFF7D4FF0020A9
:10029000FFF7C7FF1020ADF8000003208DF8020023
:1002A00010208DF803006946614800F057FE1021C8
:1002B0005F4800F0FEFEE020ADF8000003208DF85E
:1002C000020018208DF803006946594800F046FEE8
:1002D0004FF40070ADF8000018208DF803000320E3
:1002E0008DF802006946524800F038FE4FF48060F5
:1002F000ADF8000004208DF8030069464C4800F07A
:100300002DFE08BD2DE9F04107460C461546012695
:1003100019E00121464800F0CEFE4FF40071454837
:1003200000F0C7FE3846FFF70AFF0121404800F001
:10033000C0FE4FF400713F4800F0BDFE2046FFF7BD
:10034000FEFE701CC6B2AE42E3DDBDE8F0811FB513
:100350004FF4614000900020ADF80400ADF80600B5
:10036000ADF80800ADF80C000C20ADF80A006946A5
:100370002D4801F0DAFA01212B4801F062FB1FBD84
:1003800000B585B00020ADF800004FF48270ADF8E4
:1003900002000020ADF80400ADF80600ADF808003A
:1003A0004FF40070ADF80A002820ADF80C000020D2
:1003B000ADF80E000720ADF8100069461F4801F0A7
:1003C00011F901211D4801F0B2F905B000BD1CB5BD
:1003D0000521012000F0D6FE00208DF804000C203D
:1003E0008DF805002020009001208DF80600684659
:1003F00000F0F6F91CBD00BF0B49098811F0800F11
:10040000FAD0C0F30801084A121D1180704700BFDE
:100410000548008810F0400FFAD00348001D0088FE
:10042000C0F3080070470000003801404019010087
:1004300000080140000C0140000130000030014084
:1004400008B54FF00008FFF7B6FE0120FFF777FE72
:10045000FFF7FAFE0120FFF772FEFFF778FF012099
:10046000FFF76DFE40A002F083F8FFF789FF01203F
:10047000FFF765FE0120FFF7DEFE01F031FE01F01F
:1004800039FE044621463CA002F072F814B93FA0A0
:1004900002F06EF8210E44A002F06AF8C4F307419E
:1004A00046A002F065F8C4F3072149A002F060F805
:1004B000E1B249A002F05CF801F043FE4AA002F06C
:1004C00057F850E008F101001FFA80F842F210706E
:1004D000804548DB4FF00008002001F053FF05463F
:1004E000002D40D0294644A002F042F8002603E047
:1004F00045488655701CC6B2102EF9DB43480123CF
:10050000082229460090184601F039FE00282AD01A
:100510003F48007880B93C4A0821012001F0F2FEF2
:100520003B4908700846007818B13AA002F020F85C
:1005300002E03DA002F01CF83F4A0821012001F032
:100540007EFE80B13DA002F013F8002706E03A4895
:10055000C15D3FA002F00CF8781CC7B2102FF6DB8B
:1005600030A002F005F8ADE74E46432044454D4F1C
:100570002E2E2E0D0A0000004461746120766572F3
:1005800073696F6E2025640D0A0000004469646E73
:1005900027742066696E6420504E35337820626F70
:1005A0006172640D0A000000466F756E6420636816
:1005B000697020504E352025780D0A004669726D0D
:1005C00077617265207665722E2025640000000038
:1005D0002E25640D0A000000537570706F727473DD
:1005E0002025780D0A00000053414D20436F6E66B0
:1005F00069670D0A00000000526561642063617242
:1006000064202325640D0A0044000020000000201F
:100610000600002057726974652053756363657323
:100620007366756C0D0A0000577269746520457217
:10063000726F720D0A000000540000205265616460
:1006400020626C6F636B20307830383A0D0A0000FE
:1006500025782000704700BFFEE700BFFEE700BF1F
:10066000FEE700BFFEE7704770477047704770476E
:1006700070477047704770477047704770477047C2
:1006800070477047704770477047704770477047B2
:1006900070477047704770477047704770477047A2
:1006A0007047704770477047704770477047704792
:1006B0007047704770477047704770477047704782
:1006C0007047704770477047704770477047704772
:1006D0007047704770477047704770477047704762
:1006E000704770477047000031490143314A11603B
:1006F000704770B5002100230F22C4780CB32D4C35
:10070000246804F4E064C4F5E064210AC1F1040340
:10071000CA40447804FA03F1847814402143090163
:10072000254C0678A155047804F01F050124AC403F
:1007300005786D114FF0E02606EB8505C5F8004100
:1007400009E0047804F01F050124AC401B4D067835
:10075000761145F8264070BD194A0A400243154BF0
:100760001B1F1A60704739B1124A121D12680243EA
:10077000104B1B1D1A6006E00E4A121D12688243C0
:100780000C4B1B1D1A607047042808D14FF0E02164
:10079000096941F004014FF0E022116107E04FF0D8
:1007A000E021096921F004014FF0E0221161704756
:1007B0000000FA050CED00E000E400E080E100E05C
:1007C00080FFFF1F002044490860091D0860091DC3
:1007D0000860091D086041483F49143108607047AE
:1007E00000213D498279002A3AD00A4612680368FE
:1007F0009A430B461A600A1D126803689A430B1D40
:100800001A60027911440A6803681A430A60324A7E
:100810000832126803689A432F4B08331A601A1D76
:10082000126803689A432C4B0C331A604279102AE1
:100830000ED11A1F126803681A43274B08331A6037
:100840001A1D126803681A43234B0C331A600DE01B
:100850002149427911440A6803681A430A6005E095
:10086000027911440A6803689A430A6070470021BC
:10087000016001710C21417100218171704716499D
:10088000103109680143144A103211607047014663
:100890000020114A143212680A4201D0012000E0FF
:1008A000002070470C491431086070470146002051
:1008B0000022094B1B6803EA0102074B14331B6833
:1008C0000B4202D00AB1012000E00020704702492B
:1008D000143108607047000000040140FFFF0F0062
:1008E00001460020FE4A106800F0380008431060FE
:1008F0007047FB49096821F00801F94A1160114667
:100900000968014311607047F549096821F0100139
:10091000F34A116011460968014311607047F148BC
:10092000EF494860F04848607047EE48EC4948603D
:10093000ED4848607047EA48006940F08000E849A7
:1009400008617047E648006940F08000E4490861AA
:1009500070470420E249C96811F0010F01D001205D
:100960000EE0DF49C96811F0040F01D0022007E052
:10097000DB49C96811F0100F01D0032000E004200A
:10098000704700B502460423FFF7E3FF034603E088
:10099000FFF7DFFF0346521E012B01D1002AF7D1DA
:1009A00002B90523184600BD30B5044604254FF4AE
:1009B0003020FFF7E6FF0546042D17D1C84800692F
:1009C00040F00200C649086108464461006940F0F1
:1009D000400008614FF43020FFF7D3FF0546C048C0
:1009E000006941F6FD710840BD490861284630BDE7
:1009F00010B504244FF43020FFF7C3FF0446042C45
:100A000016D1B748006940F00400B54908610846AE
:100A1000006940F0400008614FF43020FFF7B1FF5B
:100A20000446AF48006941F6FB710840AC490861D3
:100A3000204610BD00B502460423FFF78AFF034697
:100A400003E0FFF786FF0346521E012B01D1002A67
:100A5000F7D102B90523184600BD10B504244FF4A0
:100A60003020FFF7E7FF0446042C16D19C480069AC
:100A700040F004009A4908610846006940F04000CF
:100A800008614FF43020FFF7D5FF04469448006911
:100A900041F6FB71084092490861204610BD0020D4
:100AA0008F49C96911F0020F01D0012000E0002038
:100AB000704730B5A5250424FFF7F1FF00B10025EC
:100AC0004FF43020FFF75DFF0446042C3AD18548EF
:100AD00083498860844888600846006940F02000A7
:100AE00008610846006940F0400008614FF430207A
:100AF000FFF747FF0446042C1BD17948006941F6F3
:100B0000DF710840764908610846006940F010002E
:100B1000086176480580E002FFF733FF0446052CA4
:100B200010D06F48006941F6EF7108406C490861C8
:100B300008E0052C06D06A48006941F6EF710840CC
:100B400067490861204630BD78B506460C46042545
:100B500000200090E802FFF714FF0546042D24D181
:100B60005F48006940F001005D4908613480E80297
:100B7000FFF707FF0546042D10D1B01C0090200C94
:100B800000990880E802FFF7FCFE0546544800691A
:100B900041F6FE7108405249086106E0504800697C
:100BA00041F6FE7108404E490861284678BD70B58F
:100BB00004460D460426F002FFF7E3FE0646042E27
:100BC00011D14748006940F001004549086125807E
:100BD000F002FFF7D6FE06464148006941F6FE7175
:100BE00008403F490861304670BD70B505460E4665
:100BF0000424E002FFF7C5FE0446042C17D139484F
:100C000037498860384888600846006940F010001D
:100C100008612E80E002FFF7B4FE0446052C06D0E2
:100C20002F48006941F6EF7108402D4908612046C0
:100C300070BD2DE9F04304464FF6FF763746B046C7
:100C4000B1460425E443E6B2C4F30727C4F30748DA
:100C50004FEA1469E802FFF794FE0546042D49D1D6
:100C600020481F498860204888600846006940F095
:100C700010000861FF2E06D01C4808300680E802EC
:100C8000FFF77FFE0546042D08D1FF2F06D0174839
:100C90000A300780E802FFF774FE0546042D0AD1EA
:100CA000B8F1FF0F07D011480C30A0F80080E8021F
:100CB000FFF767FE0546042D0AD1B9F1FF0F07D0F3
:100CC0000A480E30A0F80090E802FFF75AFE0546E9
:100CD000052D0FD00248006941F6EF71084007E08A
:100CE0000020024023016745AB89EFCD00F8FF1FCC
:100CF000664908612846BDE8F08330B505460424FE
:100D00004FF43020FFF73DFE0446042C41D16048EB
:100D10005E4988605F4888600846006940F02000AE
:100D200008610846006940F0400008614FF4302037
:100D3000FFF727FE0446042C22D15448006941F6EF
:100D4000DF710840514908610846006940F0100011
:100D500008611DB100205049088002E0A5204E49DD
:100D600008804FF43020FFF70CFE0446052C10D00D
:100D70004648006941F6EF7108404449086108E0BF
:100D8000052C06D04148006941F6DF7108403F4913
:100D90000861204630BDF0B505460E4617460424CE
:100DA0003B483A4988603B488860E002FFF7E9FD2C
:100DB0000446042C19D13548006940F0100033492D
:100DC000086147F0F800304328433349891C088004
:100DD000E002FFF7D6FD0446052C06D02B4800693B
:100DE00041F6EF710840294908612046F0BD2748C7
:100DF000C069800870472548006A70470020234971
:100E0000096811F0200F01D0012000E00020704798
:100E100029B11E4A126902431C4B1A6104E01B4AA5
:100E200012698243194B1A6170470146002001295B
:100E300008D1164AD26912F0010F01D0012008E052
:100E4000002006E0114AD2680A4201D0012000E0E9
:100E5000002070470D49C860704704200B49C968DD
:100E600011F0010F01D001200EE00849C96811F00E
:100E7000040F01D0022007E00449C96811F0100FE7
:100E800001D0032000E00420704700000020024051
:100E900023016745AB89EFCD00F8FF1F10B504466D
:100EA000CA48844208D10121042000F027FB002118
:100EB000042000F023FB46E0C548844208D101210C
:100EC000082000F01BFB0021082000F017FB3AE08F
:100ED000C048844208D10121102000F00FFB0021FE
:100EE000102000F00BFB2EE0BB48844208D101210A
:100EF000202000F003FB0021202000F0FFFA22E078
:100F0000B648844208D10121402000F0F7FA0021C0
:100F1000402000F0F3FA16E0B148844208D10121E4
:100F2000802000F0EBFA0021802000F0E7FA0AE0D0
:100F3000AC48844207D10121801500F0DFFA00217E
:100F4000A01500F0DBFA10BD10B50121084600F035
:100F5000D5FA0021012000F0D1FA10BD2DE9F041B1
:100F6000024600250026002000230024002791F8D7
:100F700003C00CF00F0591F803C01CF0100F03D054
:100F800091F802C04CEA050591F800C0BCF1000FD1
:100F900031D0146800202BE04FF0010C0CFA00F364
:100FA000B1F800C00CEA03069E4220D183004FF046
:100FB0000F0C0CFA03F7BC4305FA03FC4CEA0404DB
:100FC00091F803C0BCF1280F06D14FF0010C0CFAC8
:100FD00000FCC2F814C00AE091F803C0BCF1480F4D
:100FE00005D14FF0010C0CFA00FCC2F810C0401CF7
:100FF0000828D1D31460B1F800C0BCF1FF0F34DD74
:10100000546800202EE000F1080C4FF0010808FAA7
:101010000CF3B1F800C00CEA03069E4221D1830014
:101020004FF00F0C0CFA03F7BC4305FA03FC4CEA33
:10103000040491F803C0BCF1280F05D100F1080C9D
:1010400008FA0CF8C2F8148091F803C0BCF1480FFC
:1010500007D100F1080C4FF0010808FA0CF8C2F8AB
:101060001080401C0828CED35460BDE8F0814FF6B4
:10107000FF710180022181700421C1707047024616
:10108000002093680B4201D0012000E0002070474F
:101090000146886880B2704702460020D3680B4240
:1010A00001D0012000E0002070470146C86880B2EE
:1010B000704701617047416170470AB1016100E00A
:1010C00041617047C16070474FF480320A438261CA
:1010D0008161826182698269704702460020424BC9
:1010E00018684FF68073184040EA021008433E4BE0
:1010F000186070473D49C8617047F0B50A46002343
:1011000000240021002500F00046B6F1004F02D176
:10111000354EF16901E0344E7168C0F3034583B286
:1011200000F44016B6F5401F08D121F070612E4E34
:10113000766826F070662C4F7E6012E000F4801610
:10114000B6F5801F06D1032606FA05F4A14341F047
:10115000706106E0460D360103FA06F6B14341F030
:10116000706122B1460D360103FA06F6314300F0F4
:101170000046B6F1004F02D11B4EF16101E01A4E5C
:101180007160F0BD30B500228B071C0F0F2303FAEE
:1011900004F2154B08338C1053F824309343124C4F
:1011A00008348D1044F8253023468C1053F8243031
:1011B0008C07240F00FA04F423430B4C08348D10E1
:1011C00044F8253030BD0A490860704700080140E6
:1011D000000C0140001001400014014000180140C3
:1011E000001C01400020014000000140000020429E
:1011F000DC002042DD48006840F00100DB49086067
:1012000008464068DA490840D849486008460068FE
:10121000D8490840D54908600846006820F4802075
:1012200008600846406820F4FE0048604FF41F0044
:1012300088607047CD49096821F48031CB4A11603C
:101240001146096821F480211160B0F5803F03D078
:10125000B0F5802F0ED106E0C449096841F4803111
:10126000C24A116007E0C149096841F4A021BF4AA0
:10127000116000E000BF00BF704710B501460022BA
:10128000002300204A11012A02D1B84C236806E04D
:10129000022A02D1B54C236A01E0B44C636A01F022
:1012A0001F02012494401C4201D0012000E00020D4
:1012B00010BD38B5002000900024002500BF31206B
:1012C000FFF7DBFF05460098401C00900098B0F542
:1012D000A06F01D0002DF2D03120FFF7CEFF08B172
:1012E000012400E00024204638BD014600209F4A2A
:1012F000106820F0F80040EAC100106070479E4975
:101300000860704702460020984B586820F47C1013
:1013100042EA01031843954B5860704796490866A6
:10132000704701460020914A506820F003000843AE
:10133000506070478D48406800F00C0070470146CF
:1013400000208A4A506820F0F0000843506070473F
:1013500001460020854A506820F4E0600843506050
:10136000704701460020814A506820F4605040EAEE
:10137000C1005060704729B17C4A527A02437B4BCE
:101380005A7204E0794A527A8243784B5A72704713
:101390007A490860704701460020744A506820F47A
:1013A00040400843506070470021754A11706F4AF1
:1013B00082F82010012802D0042808D103E001217E
:1013C0006F4A117004E005216D4A117000E000BF02
:1013D00000BF70476B49086070476449096A014360
:1013E000624A11627047674944390860704730B5F6
:1013F00000210022002400235C4D6D6805F00C01E3
:1014000021B1042905D0082923D105E05E4D0560EE
:1014100022E05D4D05601FE0544D6D6805F47012CB
:10142000524D6D6805F48034022505EB92421CB9DB
:10143000564D554305600BE04C4D6D6815F4003F6B
:1014400003D0524D5543056002E04F4D55430560B2
:1014500002E04D4D056000BF00BF444D6D6805F0D2
:10146000F00109094A4D6B5C0568DD4045603F4D60
:101470006D6805F4E061090A454D6B5C4568DD4027
:1014800085603A4D6D6805F46051C90A404D6B5C4A
:101490004568DD40C560354D6D6805F44041890BF8
:1014A0003C4D6B5CC568B5FBF3F5056130BD29B1FA
:1014B0002E4A526902432D4B5A6104E02B4A52696D
:1014C00082432A4B5A61704729B1284A92690243E4
:1014D000264B9A6104E0254A92698243234B9A6124
:1014E000704729B1214AD2690243204BDA6104E0F6
:1014F0001E4AD26982431D4BDA61704729B11B4AEB
:10150000D2680243194BDA6004E0184AD268824379
:10151000164BDA60704729B1144A12690243134B23
:101520001A6104E0114A12698243104B1A61704734
:1015300014494039086070470F49C86470470B4927
:10154000C87170470948406A40F080700749486296
:10155000704701460020054A92680A4201D00120E6
:1015600000E0002070470149887270470010024077
:101570000000FFF8FFFFF6FE00004242D8004242A2
:10158000201002408004424200127A0000093D000F
:10159000070000201700002010B50446BE48844212
:1015A00008D101218014FFF7A9FF0021A014FFF743
:1015B000A5FF16E0B948844208D101210014FFF7C5
:1015C000AAFF00212014FFF7A6FF0AE0B4488442D6
:1015D00007D10121C013FFF79EFF0021E013FFF7A1
:1015E0009AFF10BD10B50022028802F441520B8808
:1015F0004C8823438C882343CC8823430C89234382
:101600004C8923438C892343CC8923431A4302808A
:10161000838B4FF2FF74234083830B8A038210BDB8
:101620002DE9F04F85B005460C464FF00009022722
:101630004FF000084FF0010B0026B246A88B4FF286
:1016400040010840A88302202884B5F81C90A068B7
:10165000022801D100BF38E0A08810B94FF0010B7B
:1016600001E04FF0020B8D48854200D100E000BF41
:101670006846FFF7BCFEDDF800A0E088B0F5007F0B
:101680000AD14FEA1A2000EB80004000A168B0FBAD
:10169000F1F0401D86B20BE04FEA4B10BAFBF0F0C0
:1016A00000EB80004000A168B0FBF1F0401D86B265
:1016B0000A20B6FBF0F606F00108A6EB0800C0F31E
:1016C0004F074FF6FF7000EA0828022F01DBFF2FBB
:1016D00002DD02274FF00008E08840EA08003843A6
:1016E0002884A088A1890843618808432188084389
:1016F00040F4006040EA0909A5F81C9005B0BDE877
:10170000F08F0021018041808180C1800181418171
:101710008181C181072101827047002101804180C0
:101720008180C1800221816000218181704721B1C7
:10173000028842F04002028004E002884FF6BF7344
:101740001A400280704721B1828B42F4806282830A
:1017500004E0828B4FF6FF331A408283704730B526
:10176000002400230C110125A540ABB21AB18588D5
:101770001D43858002E085889D43858030BD1AB178
:1017800083880B43838002E083888B438380704788
:1017900081817047014688897047A1F57E42FF3AF2
:1017A00004D0028842F48072028004E002884FF67E
:1017B000FF631A400280704721B1828842F0040220
:1017C000828004E082884FF6FB731A408280704763
:1017D00002884FF2FF731A40028002880A43028097
:1017E0007047018841F480510180704721B102881F
:1017F00042F40052028004E002884DF6FF731A4062
:101800000280704702460020012901D0108B00E0C1
:10181000908A70470146088A7047B1F5804F04D11D
:10182000028842F48042028004E002884BF6FF7393
:101830001A40028070470246002013890B4201D0F3
:10184000012000E000207047CA4302817047F0B5D4
:101850000246002000240023002501F00F07012686
:10186000BE40B4B20B1101269E40B3B2968806EA80
:1018700003051689264202D00DB1012000E00020A8
:10188000F0BD10B5002201F00F040123A3409AB26D
:10189000D343038110BD00000030014000380040F8
:1018A000003C004010B50446FB48844209D10121A8
:1018B0008803FFF723FE00214FF48040FFF71EFE50
:1018C00032E0F648844209D101214804FFF723FEA3
:1018D00000214FF40030FFF71EFE25E0F04884425F
:1018E00009D101218804FFF716FE00214FF4802062
:1018F000FFF711FE18E0EB48844209D10121C8042A
:10190000FFF709FE00214FF40020FFF704FE0BE073
:10191000E548844208D101210805FFF7FCFD0021BC
:101920004FF48010FFF7F7FD10BD2DE9F04786B0AA
:1019300005460E460024A24600BFA1460027B089F6
:1019400000B100BF2F462C8A4CF6FF700440F0888F
:1019500004432C82AC894EF6F3100440B0883189E0
:101960000843718908430443AC81AC8A4FF6FF40B9
:101970000440B0890443AC8201A8FFF738FDC64893
:10198000874202D1DDF810A001E0DDF80CA0A889A3
:1019900010F4004F08D00AEBCA0000EB0A103168BF
:1019A0004900B0FBF1F807E00AEBCA0000EB0A10AF
:1019B00031688900B0FBF1F86420B8FBF0F0040155
:1019C0002009642101FB1089A88910F4004F08D078
:1019D000322000EBC900B0FBF1F000F00700044337
:1019E00008E0322000EB09106421B0FBF1F000F0B8
:1019F0000F0004432C8106B0BDE8F0874FF4165168
:101A0000016000218180C18001810C214181002180
:101A10008181704710B502460020108A4FF2FF0303
:101A200018400B884C8823438C882343CC8823435D
:101A30001843108210BD0021018041808180C18047
:101A4000704721B1828942F40052828104E0828988
:101A50004DF6FF731A4082817047F0B503460024AB
:101A6000002600250020A1F510676A3F00D100BFC5
:101A70001846C1F3421401F01F06012707FA06F5C4
:101A8000012C01D10C3004E0022C01D1103000E017
:101A900014301AB107682F43076002E00768AF43AC
:101AA0000760F0BD1AB1838A0B43838202E0838A08
:101AB0008B4383827047028A4FF6F0731A4002828A
:101AC000028A0A430282704782894FF2FF731A40EA
:101AD000828182890A438281704721B1828942F0E2
:101AE0000202828104E082894FF6FD731A408281EE
:101AF0007047028A4FF6DF731A400282028A0A4355
:101B00000282704721B1028A42F48042028204E0DC
:101B1000028A4BF6FF731A4002827047C1F3080233
:101B20008280704701468888C0F308007047818929
:101B300041F0010181817047028BD2B20283028B96
:101B400042EA012202837047028B02F47F42028341
:101B5000028B0A430283704721B1828A42F020023D
:101B6000828204E0828A4FF6DF731A4082827047D5
:101B700021B1828A42F01002828204E0828A4FF60A
:101B8000EF731A408282704721B1828A42F00802C4
:101B9000828204E0828A4FF6F7731A40828270478D
:101BA00021B1828942F40042828103E08289C2F33A
:101BB0000E028281704721B1828A42F400628282E1
:101BC00004E0828A4FF2FF731A4082827047828A51
:101BD0004FF6FB731A408282828A0A4382827047E0
:101BE00021B1828A42F00202828204E0828A4FF6A8
:101BF000FD731A408282704702460020B1F5007FD3
:101C000000D100BF13880B4201D0012000E000206A
:101C1000704701F40072B2F5007F00D100BFCA43E3
:101C20000280704770B50246002400230025002082
:101C3000A1F510666A3E00D100BFC1F3421501F064
:101C40001F03012606FA03F3012D02D196893340C2
:101C500006E0022D02D1168A334001E0968A334015
:101C60000C12012606FA04F41688344013B10CB1A4
:101C7000012000E0002070BD10B500220023A1F576
:101C800010646A3C00D100BF0A1201249440A3B240
:101C9000DC43048010BD00000038014000440040D7
:101CA00000480040004C0040005000400CB50020AF
:101CB000019000906B48006840F4803069490860EA
:101CC00000BF6848006800F4003000900198401C94
:101CD0000190009818B90198B0F5A06FF1D1614852
:101CE000006810F4003F02D00120009001E00020C5
:101CF00000900098012842D15B48006840F0100035
:101D0000594908600846006820F00300086008464A
:101D1000006840F00200086052484068514948603D
:101D20000846406848600846406840F48060486063
:101D30000846406820F47C1048600846406840F43B
:101D4000E81048600846006840F08070086000BFF6
:101D50004448006810F0007FFAD04248406820F004
:101D60000300404948600846406840F0020048606F
:101D700000BF3C48406800F00C000828F9D10CBDB9
:101D800010B5FFF793FF10BD10B53648006840F05E
:101D90000100344908600846406834490840314928
:101DA000486008460068324908402E4908600846E5
:101DB000006820F4802008600846406820F4FE0097
:101DC00048604FF41F008860FFF7DAFF4FF00060B3
:101DD0002849086010BD10B5002100200022214BC9
:101DE0005B6803F00C0121B1042906D0082928D131
:101DF00007E0214B214C236027E01F4B1F4C236041
:101E000023E0184B5B6803F47010164B5B6803F417
:101E10008032022303EB904022B9194B4343174C05
:101E200023600DE00F4B5B6813F4003F04D0144BAC
:101E30004343124C236003E00F4B43430F4C23609A
:101E400003E00D4B0D4C236000BF00BF054B5B68EA
:101E5000C3F303130B4CE15C084B1B68CB40074CEE
:101E6000236010BD00100240002002400000FFF877
:101E7000FFFFF6FE08ED00E000127A001C000020D3
:101E800000093D0020000020064880470648004722
:101E9000FEE7FEE7FEE7FEE7FEE7FEE7FEE7FEE71A
:101EA000FEE7FEE7891D0008ED000008002103E0C1
:101EB00000BF00BF00BF491C8142F9D3704710B575
:101EC0000A20FEF72DF91021F848FFF7F4F80A2050
:101ED000FEF726F910BD10B50A20FEF721F91021F2
:101EE000F248FFF7E6F80A20FEF71AF910BD00BF26
:101EF000EF48008910F0020FFAD00020EC498881E9
:101F000000BFEB48008910F0010FFAD0E848808943
:101F1000C0B27047014600BFE548008910F0020FCB
:101F2000FAD0E348818100BFE148008910F0010F39
:101F3000FAD0DF488089C0B2704710B5FFF7BFFF05
:101F40000220FFF7E7FFFFF7D2FF0446FFF7C3FFCA
:101F5000204610BD70B505460E46FFF7B0FF0320C2
:101F6000FFF7D8FFD3A000F003FB002408E0FFF741
:101F7000BEFF2855295DD2A000F0FAFA601CC4B259
:101F8000B442F4DBD0A000F0F3FAFFF7A4FF70BD79
:101F90001CB506216846FFF7DDFF0622CB496846DF
:101FA00000F074FA08B901201CBD0020FCE72DE9FF
:101FB000F04706460C46601CC4B2C5A000F0D8FA33
:101FC000FFF77DFF0120FFF7A5FFFF270020FFF7A8
:101FD000A1FF0020FFF79EFFFF20FFF79BFF204699
:101FE000FFF798FFE043401C00F0FF094846FFF769
:101FF00091FFD420FFF78EFF07F1D400C7B2002174
:10200000AFA000F0B5FA0021ADA000F0B1FAFF21B9
:10201000ABA000F0ADFA2146A9A000F0A9FA49460C
:10202000A7A000F0A5FAD421A5A000F0A1FA0025F0
:102030000BE0705DFFF76EFF705D3844C7B2715DF5
:102040009FA000F095FA681CC5B2601EA842F0DCA3
:10205000F84300F0FF084046FFF75CFF0020FFF761
:1020600059FFFFF738FF414695A000F081FA0021A3
:102070009AA000F07DFABDE8F0872DE9F041064610
:102080000F461446002539463046FFF790FF0BE017
:102090003CB105F10A0085B2A54202DD0020BDE891
:1020A000F0810120FEF74BF8FFF747FF0128EFD141
:1020B000FFF76EFF08B90020F1E700250AE034B110
:1020C00005F10A0085B2A54201DD0020E7E7012005
:1020D000FEF735F8FFF731FF0128F0D10020DEE7E9
:1020E00010B502207F4908700A2201217D48FFF7C0
:1020F000C4FF10BD10B502207A4908700A220121E0
:102100007848FFF7BAFF08B9002010BD0C217548C8
:10211000FFF720FF06227449724800F0B7F908B1B2
:102120000020F2E76F4884792402C0790443240236
:102130006C48007A044324026A48407A04432046EB
:10214000E3E710B514206749087001204870142097
:1021500088700120C8700A2204216248FFF78DFFB1
:1021600008B9002010BD08215E48FFF7F3FE5D4866
:102170004079152801D10120F4E70020F2E72DE98C
:10218000F04780460D4691469A46089C40205549A6
:102190000870084680F80180BAF1010F02D1602072
:1021A000887002E061204F4988704E4880F80390A3
:1021B00020784C49087160784871A0788871E0787F
:1021C000C8712079087260794872280E8872280CCC
:1021D000C872280A08734D730A220E214148FFF77E
:1021E0004CFF10B90020BDE8F08708213D48FFF7FB
:1021F000B1FE002605E03B48815D3CA000F0B8F947
:10220000761C0E2EF7DB30A000F0B2F938A000F0FB
:10221000AFF9002706E03348C15D34A000F0A8F90B
:10222000781CC7B2082FF6DB2E488079412804D1EC
:102230002C48C07908B90120D5E70020D3E72DE963
:10224000F04105460E4617464020264908700846CC
:102250004570302088700846C6700A220421FFF7B6
:102260000CFF10B90020BDE8F08118211D48FFF7D0
:1022700071FE21A000F07CF908240BE01948015DF3
:10228000A4F1080039541748015D18A000F070F956
:10229000601CC4B2182CF1DB1248807941282FD180
:1022A0001048C07908B90120DDE729E000080140A5
:1022B0000030014052656164696E673A200D0A0082
:1022C00020307825780000000D0A00003000002042
:1022D00053656E64696E673A2000000020307825EF
:1022E000780D0A00640000203600002025782000C8
:1022F000415554480D0A0000524541440D0A000062
:102300000020B0E72DE9F04106460F4690464020F8
:102310004A49087008464670A02088700846C77071
:10232000002406E018F80410201D444A1154601CD3
:10233000C4B2102CF6DB0A2214214048FFF79DFEA0
:1023400010B90020BDE8F08108213C48FFF702FEEB
:102350003BA000F00DF9002507E03848415DAFF2E1
:10236000740000F005F9681CC5B2082DF5DB334890
:102370008079412804D13148C07908B90120E1E7CA
:102380000020DFE72DE9F04107464A202B4908707D
:1023900001204870084687700A220321FFF76DFE6E
:1023A00010B90020BDE8F08114212448FFF7D2FDC8
:1023B0002248C17924A000F0DBF82048C079012828
:1023C00001D00020EEE71D48467A4FF6FF7000EA84
:1023D00006261A48807A064331461FA000F0C8F846
:1023E0001648C17A21A000F0C3F8002500240FE0B0
:1023F0002D0204F10D001149085C054304F10D00A4
:102400000A46115CAFF21C1000F0B2F8601CC4B2B6
:102410000A48007BA042EBDC19A000F0A9F80024D8
:1024200007E00648015DAFF23C1000F0A1F8601C27
:10243000C4B2142CF5DB2846B4E700006400002089
:1024400057524954450D0A00466F756E6420256445
:1024500020746167730D0A0053656E7320526573B3
:10246000706F6E73653A2025780D0A0053656C20F5
:10247000526573706F6E73653A20257820000000F6
:1024800054617267657449440000000030B5054628
:102490000020034600E05B1C934205D2EC5CC85C64
:1024A000201A01D1002CF6D130BD2DE9F05F054690
:1024B000002092469B4688460646814640241BE003
:1024C000284641464746224600F041F853465A46C0
:1024D000C01A914110D311461846224600F028F840
:1024E0002D1A67EB01084F4622460120002100F01B
:1024F0001FF817EB00094E41201EA4F10104DFDC98
:10250000484631462A464346BDE8F09F064C074DF3
:1025100006E0E06840F0010394E8070098471034B3
:10252000AC42F6D3FDF7E6FD7028000890280008BD
:10253000202A04DB203A00FA02F100207047914083
:10254000C2F1200320FA03F3194390407047202A78
:1025500004DB203A21FA02F00021704721FA02F34D
:10256000D040C2F120029140084319467047000054
:102570000FB4054B10B503A9044A029800F018F8EF
:1025800010BC5DF814FB00000101000840000020B1
:1025900002E008C8121F08C1002AFAD1704770472C
:1025A000002001E001C1121F002AFBD1704700008A
:1025B0002DE9FF4F8DB09B460F460446002638E1BB
:1025C000252801D00F9959E00025641C9D49A84693
:1025D00001222378203B02FA03F0084202D005438F
:1025E000641CF6E720782E2817D114F8010F45F067
:1025F00004052A280ED06FF02F022078A0F13001B8
:1026000009290AD808EB880102EB410100EB010817
:10261000641CF2E757F8048B641C20786C280DD0FA
:1026200004DC4C2812D06A2811D104E074280DD0A3
:102630007A280CD10AE045F4001507E0617845F4EA
:102640008015814202D1641C05F58015641C227836
:10265000692A46D008DC002A70D0582A69D0632A3B
:1026600011D0642A08D13CE0702A69D0732A14D0B2
:10267000752A5CD0782A5CD00F9910465A4690474C
:1026800006F10106D4E017F8040B8DF800000020D5
:102690008DF80100E946012003E057F8049B4FF054
:1026A000FF3069074FF0000501D40AE06D1C454575
:1026B0000DDA8542FADB19F805100029F6D106E09B
:1026C0006D1C8542FCDB19F805100029F8D12E4459
:1026D00004E019F8010B5A460F9990476D1EF8D285
:1026E000A6E00A200021CDE90801C5F30250022826
:1026F0000BD001CFC11700290EDA4FF0000CD0EB40
:102700000C006CEB01012D2309E007F1070727F00E
:102710000707F7E80201EEE72B0504D52B238DF818
:102720002830012330E0EB072ED02023F7E70A20E2
:1027300000E010200021CDE9080109E07DE0FFE77D
:102740001020002145F00405CDE908014FF00808EC
:10275000C5F3025002281BD001CF00214FF0000A20
:102760002B0712D5702A19D0DDE908C38CF0100CA4
:102770005CEA030C09D150EA010306D030238DF83E
:1027800028308DF8292002239A46582A10D00AE0D2
:10279000FF1D27F00707F7E80201DFE740228DF869
:1027A00028204FF0010A28A20DF120090B9209E020
:1027B0002AA2F9E7DDE90823FFF777FE0B9B9B5C74
:1027C00009F8013D50EA0102F4D1ADEB090000F136
:1027D00020000890680701D44FF001080899884547
:1027E00002DDA8EB010000E000208046002506E0A5
:1027F0000AA85A46405D0F999047761C6D1C5545B6
:10280000F6DB04E030205A460F999047761CB8F169
:102810000001A8F10108F5DC05E019F8010B5A46A2
:102820000F999047761C0899481E08900029F4DCFF
:10283000641C207800287FF4C3AE11B03046BDE898
:10284000F08F00000928010030313233343536373B
:1028500038396162636465660000000030313233EC
:10286000343536373839414243444546000000008C
:102870009028000800000020440000009025000877
:10288000D42800084400002064040000A0250008AB
:10289000FFFFFFFFFFFF0000000000010203040133
:1028A00002030406070809020406080000A24A04FD
:1028B00000000000000000000102030406070809F0
:1028C0000000FF00FF0000FF06FAD5030000000033
:0428D0000000000004
:04000005080000ED02
:00000001FF
