:020000040800F2
:10000000700C0020E12F0008290800082B080008C8
:100010002F08000833080008370800080000000017
:100020000000000000000000000000003D08000883
:100030003B080008000000003F08000841080008D5
:10004000490800084B0800084D0800084F08000840
:100050005108000853080008550800085708000810
:10006000590800085B0800085D0800085F080008E0
:10007000610800086308000865080008890800088E
:100080008B0800088D0800088F080008FB2F000867
:10009000FB2F0008FB2F0008FB2F00089908000821
:1000A0009B0800089D0800089F080008A108000898
:1000B000A3080008A5080008A7080008A908000868
:1000C000AB080008AD080008AF080008B108000838
:1000D000B3080008B5080008B7080008B908000808
:1000E000BB080008BD080008BF080008DFF80CD0F6
:1000F00003F0A6FF00480047E9060008700C002046
:1001000070B504460D46E1B2FE4801F07DFD00BF2A
:100110004021FC4801F0E6FD0028F9D0204670BDE2
:1001200008B50021009100EBC001C900009102E078
:100130000099491E009100990029F9D108BD08B520
:1001400000210091F0494143009102E00099491ECD
:10015000009100990029F9D108BD08B50E208DF84D
:10016000000003208DF8010000208DF8020001201E
:100170008DF80300684600F0C0FB08BD10B54FF4D1
:10018000803001F0CDF801F00AF90446012C25D1A8
:10019000102000F02FFC022000F018FC002001F0DD
:1001A00044F9002001F053F94FF4A06001F046F942
:1001B0004FF4E011200401F01BF9012001F024F9B3
:1001C00000BF392001F0CFF80028FAD0022001F05A
:1001D0001EF900BF01F024F90828FBD1012144F2E7
:1001E0000D0001F0E7F9012144F2010001F0EFF9FF
:1001F0000121084601F0D1F910BD70B504460D4645
:1002000085B900228021C14800F0CDFF00224021A5
:10021000BE4800F0C8FF00224FF48071BC4800F0D7
:10022000C2FF22E0012C0FD100228021B74800F04C
:10023000BAFF01224021B54800F0B5FF002221029B
:10024000B34800F0B0FF10E0022C0ED10122802153
:10025000AE4800F0A8FF00224021AC4800F0A3FF08
:1002600001221102AA4800F09EFF70BD10B504469D
:1002700022460121A54800F096FF10BD08B50220D6
:10028000ADF8000003208DF8020010208DF8030067
:1002900069469F4800F0D8FE02219D4800F081FF8A
:1002A0000420ADF8000003208DF8020010208DF826
:1002B00003006946964800F0C7FE0421944800F008
:1002C00070FF0120ADF8000003208DF8020010201F
:1002D0008DF8030069468D4800F0B6FE0020FFF758
:1002E000C5FF4020ADF8000003208DF8020010206B
:1002F0008DF803006946854800F0A6FE8020ADF821
:10030000000003208DF8020010208DF803006946DC
:100310007E4800F099FE4FF48070ADF80000032095
:100320008DF8020010208DF803006946784800F02F
:100330008BFE00210120FFF760FF00210220FFF764
:100340005CFF4FF48050ADF8000003208DF80200F0
:1003500010208DF8030069466C4800F075FE4FF4DC
:1003600080516A4800F01BFF0820ADF80000032010
:100370008DF8020018208DF803006946644800F0EB
:1003800063FE4FF42040ADF8000003208DF802001A
:1003900010208DF8030069465C4800F055FE4FF4CC
:1003A0008040ADF8000003208DF8020004208DF895
:1003B00003006946554800F047FE4FF40070ADF861
:1003C000000018208DF8030003208DF80200694614
:1003D0004F4800F039FE4FF48060ADF80000042073
:1003E0008DF8030069464A4800F02EFE08BD00B5AE
:1003F0008FB000214FF0006000F0B2FA4148001DBC
:100400000090444801901020029000200390049036
:100410008020059000200690079008904FF48050AF
:10042000099000200A904021364801F068FC694696
:10043000394802F061FC01220221374802F093FCA6
:100440000021354802F083FC2E48001D00903348FF
:1004500001900020029064200390002004908020EE
:100460000590002006900790202008900002099037
:1004700000200A9069462848143002F03DFC012112
:100480002548143002F063FC4FF461400B900020CB
:10049000ADF83000ADF83200ADF83400ADF83800FA
:1004A0000C20ADF836000BA9164801F0B4FA012271
:1004B000C021144801F06CFB0121124801F037FB08
:1004C0000FB000BD00B585B00020ADF800004FF4BE
:1004D0008270ADF802000020ADF80400ADF806000F
:1004E000ADF808004FF40070ADF80A002820ADF810
:1004F0000C000020ADF80E000720ADF81000694692
:1005000007480FE00038014040190100000C01408D
:10051000000801407400002044000240D800002080
:100520000038004001F0D4F801216B4801F075F962
:1005300005B000BD00B587B040F6B730ADF8140087
:100540002320ADF810000020ADF81600ADF8120021
:1005500004A94FF0804001F0F3FC6020ADF80000EA
:100560000120ADF802004FF4FA70ADF8060000204B
:10057000ADF8080069464FF0804001F0F8FD082111
:10058000C80602F088F90121880702F035F9002138
:100590004FF0804002F0C4FA0121880702F02CF8E5
:1005A00007B000BD70472DE9F04107460C461546DF
:1005B00001260FE00121494800F0F1FD3846FFF720
:1005C000BEFD0121454800F0ECFD2046FFF7B7FDD8
:1005D000701CC6B2AE42EDDDBDE8F0812DE9F04100
:1005E00004460D4616461F464FF001083CE0012C1C
:1005F0000FD100228021394800F0D5FD0122402191
:10060000364800F0D0FD00222102354800F0CBFD35
:1006100010E0022C0ED101228021304800F0C3FDF1
:10062000002240212D4800F0BEFD012211022C487D
:1006300000F0B9FD2846FFF782FD002280212748FF
:1006400000F0B1FD00224021244800F0ACFD002262
:100650004FF48071224800F0A6FD3046FFF76FFD91
:1006600008F1010000F0FF08B845C0DDBDE8F081E9
:1006700010B54FF4FA71080702F05CFA3220FFF768
:100680005EFD01210846FFF7B8FD10BD10B540F62C
:10069000C411080702F04EFA3220FFF750FD012185
:1006A0000220FFF7AAFD10BD00BF0E49098811F016
:1006B000800FFAD0C0F308010A4A121D118070475A
:1006C00000BF0848008810F0400FFAD00548001D10
:1006D0000088C0F30800704700380040000C01405B
:1006E00000080140003801401CB544A103C9CDE910
:1006F00000010024002043490870012048700020B8
:100700008870FFF73BFD0120FFF719FDFFF7B6FDED
:100710000120FFF714FDFFF76AFE0120FFF70FFD30
:10072000FFF708FF0120FFF70AFD0120FFF707FD93
:10073000FFF713FD344800681422B0FBF2F1B1F169
:10074000807F01D301201DE021F07F40401E4FF04B
:10075000E022506150170F22002807DA13071E0EFF
:100760002A4B00F00F052D1F5E5503E013071D0EE9
:10077000274B1D5400BF00204FF0E0229061032062
:100780001061002008B100BFFEE702F04DFD02F04D
:10079000ACFD04463CB905E002230A2211460120C3
:1007A000FFF71CFFF8E701210846FFF726FD02F0DE
:1007B000F6FDFFF75DFF1FE016480078E0B100206E
:1007C0001449087014480078012811D1134A1449BB
:1007D000002002F031FE134908700846007820B16D
:1007E00001220A210846FFF7DEFE00200A490870B0
:1007F00003F08FF903F0EBFADEE70000FFFFFFFFE5
:10080000FFFF0000160000203000002018ED00E07F
:1008100000E400E0000000201200002002000020A0
:100820000300002001000020704700BFFEE700BF6A
:10083000FEE700BFFEE700BFFEE770477047704766
:10084000012028490870704770477047704770470B
:1008500070477047704770477047704770477047E0
:100860007047704710B54FF4005002F0A9FA012804
:1008700009D100211C4802F06AFA01201B49487086
:10088000400302F0B0FA10BD7047704770477047E0
:1008900070477047704770477047704770477047A0
:1008A0007047704770477047704770477047704790
:1008B0007047704770477047704770477047704780
:1008C0007047704770477047704770477047704770
:1008D0007047704770477047704770477047704760
:1008E0007047000000000020440002401600002075
:1008F00031490143314A1160704770B5002100232E
:100900000F22C4780CB32D4C246804F4E064C4F5C1
:10091000E064210AC1F10403CA40447804FA03F1F7
:100920008478144021430901254C0678A1550478A8
:1009300004F01F050124AC4005786D114FF0E0264E
:1009400006EB8505C5F8004109E0047804F01F05B1
:100950000124AC401B4D0678761145F8264070BD49
:10096000194A0A400243154B1B1F1A60704739B1E0
:10097000124A121D12680243104B1B1D1A6006E03A
:100980000E4A121D126882430C4B1B1D1A607047E1
:10099000042808D14FF0E021096941F004014FF02B
:1009A000E022116107E04FF0E021096921F0040124
:1009B0004FF0E022116170470000FA050CED00E0F5
:1009C00000E400E080E100E080FFFF1F014600201E
:1009D000FE4A106800F03800084310607047FB4979
:1009E000096821F00801F94A1160114609680143BC
:1009F00011607047F549096821F01001F34A116050
:100A000011460968014311607047F148EF49486099
:100A1000F04848607047EE48EC494860ED4848604F
:100A20007047EA48006940F08000E8490861704773
:100A3000E648006940F08000E449086170470420FE
:100A4000E249C96811F0010F01D001200EE0DF4931
:100A5000C96811F0040F01D0022007E0DB49C96822
:100A600011F0100F01D0032000E00420704700B502
:100A700002460423FFF7E3FF034603E0FFF7DFFF2F
:100A80000346521E012B01D1002AF7D102B90523DA
:100A9000184600BD30B5044604254FF43020FFF75A
:100AA000E6FF0546042D17D1C848006940F0020052
:100AB000C649086108464461006940F04000086189
:100AC0004FF43020FFF7D3FF0546C048006941F6D8
:100AD000FD710840BD490861284630BD10B50424A9
:100AE0004FF43020FFF7C3FF0446042C16D1B7485B
:100AF000006940F00400B54908610846006940F00B
:100B0000400008614FF43020FFF7B1FF0446AF48C2
:100B1000006941F6FB710840AC490861204610BDF0
:100B200000B502460423FFF78AFF034603E0FFF700
:100B300086FF0346521E012B01D1002AF7D102B9CC
:100B40000523184600BD10B504244FF43020FFF7EC
:100B5000E7FF0446042C16D19C48006940F00400CD
:100B60009A4908610846006940F0400008614FF466
:100B70003020FFF7D5FF04469448006941F6FB7129
:100B8000084092490861204610BD00208F49C9697C
:100B900011F0020F01D0012000E00020704730B5B5
:100BA000A5250424FFF7F1FF00B100254FF4302004
:100BB000FFF75DFF0446042C3AD1854883498860DD
:100BC000844888600846006940F0200008610846B3
:100BD000006940F0400008614FF43020FFF747FF04
:100BE0000446042C1BD17948006941F6DF710840A6
:100BF000764908610846006940F0100008617648AF
:100C00000580E002FFF733FF0446052C10D06F4843
:100C1000006941F6EF7108406C49086108E0052C55
:100C200006D06A48006941F6EF71084067490861DB
:100C3000204630BD78B506460C46042500200090BD
:100C4000E802FFF714FF0546042D24D15F48006930
:100C500040F001005D4908613480E802FFF707FFBA
:100C60000546042D10D1B01C0090200C009908807E
:100C7000E802FFF7FCFE05465448006941F6FE71A4
:100C800008405249086106E05048006941F6FE718B
:100C900008404E490861284678BD70B504460D46A7
:100CA0000426F002FFF7E3FE0646042E11D1474862
:100CB000006940F00100454908612580F002FFF716
:100CC000D6FE06464148006941F6FE7108403F499C
:100CD0000861304670BD70B505460E460424E0023A
:100CE000FFF7C5FE0446042C17D139483749886000
:100CF000384888600846006940F0100008612E807E
:100D0000E002FFF7B4FE0446052C06D02F48006928
:100D100041F6EF7108402D490861204670BD2DE96C
:100D2000F04304464FF6FF763746B046B1460425F9
:100D3000E443E6B2C4F30727C4F307484FEA146953
:100D4000E802FFF794FE0546042D49D120481F49CB
:100D50008860204888600846006940F010000861FB
:100D6000FF2E06D01C4808300680E802FFF77FFE01
:100D70000546042D08D1FF2F06D017480A300780FA
:100D8000E802FFF774FE0546042D0AD1B8F1FF0F03
:100D900007D011480C30A0F80080E802FFF767FE8A
:100DA0000546042D0AD1B9F1FF0F07D00A480E30CD
:100DB000A0F80090E802FFF75AFE0546052D0FD077
:100DC0000248006941F6EF71084007E00020024048
:100DD00023016745AB89EFCD00F8FF1F6649086125
:100DE0002846BDE8F08330B5054604244FF4302092
:100DF000FFF73DFE0446042C41D160485E498860FF
:100E00005F4888600846006940F020000861084695
:100E1000006940F0400008614FF43020FFF727FEE2
:100E20000446042C22D15448006941F6DF71084081
:100E3000514908610846006940F0100008611DB181
:100E400000205049088002E0A5204E4908804FF458
:100E50003020FFF70CFE0446052C10D046480069F0
:100E600041F6EF7108404449086108E0052C06D0BE
:100E70004148006941F6DF7108403F49086120465A
:100E800030BDF0B505460E46174604243B483A49A6
:100E900088603B488860E002FFF7E9FD0446042CC7
:100EA00019D13548006940F010003349086147F016
:100EB000F800304328433349891C0880E002FFF7DB
:100EC000D6FD0446052C06D02B48006941F6EF718B
:100ED0000840294908612046F0BD2748C0698008BC
:100EE00070472548006A704700202349096811F0BF
:100EF000200F01D0012000E00020704729B11E4AD8
:100F0000126902431C4B1A6104E01B4A12698243B6
:100F1000194B1A61704701460020012908D1164A71
:100F2000D26912F0010F01D0012008E0002006E094
:100F3000114AD2680A4201D0012000E00020704727
:100F40000D49C860704704200B49C96811F0010FB2
:100F500001D001200EE00849C96811F0040F01D04A
:100F6000022007E00449C96811F0100F01D00320E6
:100F700000E0042070470000002002402301674584
:100F8000AB89EFCD00F8FF1F10B50446CA48844274
:100F900008D10121042000F027FB0021042000F0EB
:100FA00023FB46E0C548844208D10121082000F017
:100FB0001BFB0021082000F017FB3AE0C0488442E8
:100FC00008D10121102000F00FFB0021102000F0BB
:100FD0000BFB2EE0BB48844208D10121202000F009
:100FE00003FB0021202000F0FFFA22E0B6488442F3
:100FF00008D10121402000F0F7FA0021402000F044
:10100000F3FA16E0B148844208D10121802000F0B3
:10101000EBFA0021802000F0E7FA0AE0AC488442B5
:1010200007D10121801500F0DFFA0021A01500F0A2
:10103000DBFA10BD10B50121084600F0D5FA0021F9
:10104000012000F0D1FA10BD2DE9F0410246002543
:101050000026002000230024002791F803C00CF094
:101060000F0591F803C01CF0100F03D091F802C0D7
:101070004CEA050591F800C0BCF1000F31D01468AE
:1010800000202BE04FF0010C0CFA00F3B1F800C087
:101090000CEA03069E4220D183004FF00F0C0CFA9D
:1010A00003F7BC4305FA03FC4CEA040491F803C0BF
:1010B000BCF1280F06D14FF0010C0CFA00FCC2F86D
:1010C00014C00AE091F803C0BCF1480F05D14FF0FD
:1010D000010C0CFA00FCC2F810C0401C0828D1D347
:1010E0001460B1F800C0BCF1FF0F34DD546800207B
:1010F0002EE000F1080C4FF0010808FA0CF3B1F8EB
:1011000000C00CEA03069E4221D183004FF00F0C71
:101110000CFA03F7BC4305FA03FC4CEA040491F80B
:1011200003C0BCF1280F05D100F1080C08FA0CF837
:10113000C2F8148091F803C0BCF1480F07D100F148
:10114000080C4FF0010808FA0CF8C2F81080401C97
:101150000828CED35460BDE8F0814FF6FF710180BE
:10116000022181700421C1707047024600209368FB
:101170000B4201D0012000E0002070470146886842
:1011800080B2704702460020D3680B4201D0012094
:1011900000E0002070470146C86880B270470161D6
:1011A0007047416170470AB1016100E041617047D9
:1011B000C16070474FF480320A438261816182616D
:1011C00082698269704702460020424B18684FF6D8
:1011D0008073184040EA021008433E4B1860704785
:1011E0003D49C8617047F0B50A460023002400213C
:1011F000002500F00046B6F1004F02D1354EF169EE
:1012000001E0344E7168C0F3034583B200F4401628
:10121000B6F5401F08D121F070612E4E766826F099
:1012200070662C4F7E6012E000F48016B6F5801FC9
:1012300006D1032606FA05F4A14341F0706106E0E9
:10124000460D360103FA06F6B14341F0706122B152
:10125000460D360103FA06F6314300F00046B6F1BA
:10126000004F02D11B4EF16101E01A4E7160F0BDDA
:1012700030B500228B071C0F0F2303FA04F2154B25
:1012800008338C1053F824309343124C08348D10DB
:1012900044F8253023468C1053F824308C07240F53
:1012A00000FA04F423430B4C08348D1044F8253025
:1012B00030BD0A490860704700080140000C014039
:1012C000001001400014014000180140001C0140C2
:1012D000002001400000014000002042DC002042CC
:1012E000DD48006840F00100DB49086008464068BE
:1012F000DA490840D849486008460068D84908409B
:10130000D54908600846006820F480200860084637
:10131000406820F4FE0048604FF41F00886070476A
:10132000CD49096821F48031CB4A11601146096822
:1013300021F480211160B0F5803F03D0B0F5802FFB
:101340000ED106E0C449096841F48031C24A1160F7
:1013500007E0C149096841F4A021BF4A116000E0DB
:1013600000BF00BF704710B50146002200230020D7
:101370004A11012A02D1B84C236806E0022A02D1A0
:10138000B54C236A01E0B44C636A01F01F020124EA
:1013900094401C4201D0012000E0002010BD38B56F
:1013A000002000900024002500BF3120FFF7DBFF64
:1013B00005460098401C00900098B0F5A06F01D041
:1013C000002DF2D03120FFF7CEFF08B1012400E05C
:1013D0000024204638BD014600209F4A106820F0B6
:1013E000F80040EAC100106070479E4908607047ED
:1013F00002460020984B586820F47C1042EA010312
:101400001843954B586070479649086670470146E7
:101410000020914A506820F0030008435060704754
:101420008D48406800F00C007047014600208A4A51
:10143000506820F0F00008435060704701460020DB
:10144000854A506820F4E0600843506070470146C8
:101450000020814A506820F4605040EAC10050608A
:10146000704729B17C4A527A02437B4B5A7204E09E
:10147000794A527A8243784B5A7270477A490860A7
:10148000704701460020744A506820F440400843E9
:10149000506070470021754A11706F4A82F8201021
:1014A000012802D0042808D103E001216F4A1170FD
:1014B00004E005216D4A117000E000BF00BF7047D5
:1014C0006B49086070476449096A0143624A1162C6
:1014D0007047674944390860704730B500210022E1
:1014E000002400235C4D6D6805F00C0121B1042936
:1014F00005D0082923D105E05E4D056022E05D4D51
:1015000005601FE0544D6D6805F47012524D6D6812
:1015100005F48034022505EB92421CB9564D554323
:1015200005600BE04C4D6D6815F4003F03D0524D43
:101530005543056002E04F4D5543056002E04D4DB7
:10154000056000BF00BF444D6D6805F0F00109095A
:101550004A4D6B5C0568DD4045603F4D6D6805F4A4
:10156000E061090A454D6B5C4568DD4085603A4D98
:101570006D6805F46051C90A404D6B5C4568DD40FB
:10158000C560354D6D6805F44041890B3C4D6B5C81
:10159000C568B5FBF3F5056130BD29B12E4A526926
:1015A00002432D4B5A6104E02B4A526982432A4B75
:1015B0005A61704729B1284A92690243264B9A61C1
:1015C00004E0254A92698243234B9A61704729B10E
:1015D000214AD2690243204BDA6104E01E4AD269F3
:1015E00082431D4BDA61704729B11B4AD26802431E
:1015F000194BDA6004E0184AD2688243164BDA606D
:10160000704729B1144A12690243134B1A6104E06E
:10161000114A12698243104B1A61704714494039CC
:10162000086070470F49C86470470B49C87170471C
:101630000948406A40F08070074948627047014697
:101640000020054A92680A4201D0012000E00020F3
:101650007047014988727047001002400000FFF88F
:10166000FFFFF6FE00004242D80042422010024036
:101670008004424200127A0000093D001A00002056
:101680002A00002010B50446BE48844208D101213A
:101690008014FFF7A9FF0021A014FFF7A5FF16E0B3
:1016A000B948844208D101210014FFF7AAFF0021A4
:1016B0002014FFF7A6FF0AE0B448844207D10121B5
:1016C000C013FFF79EFF0021E013FFF79AFF10BD44
:1016D00010B50022028802F441520B884C88234343
:1016E0008C882343CC8823430C8923434C89234390
:1016F0008C892343CC8923431A430280838B4FF286
:10170000FF74234083830B8A038210BD2DE9F04FC1
:1017100085B005460C464FF0000902274FF000083F
:101720004FF0010B0026B246A88B4FF24001084053
:10173000A88302202884B5F81C90A068022801D153
:1017400000BF38E0A08810B94FF0010B01E04FF066
:10175000020B8D48854200D100E000BF6846FFF7CC
:10176000BCFEDDF800A0E088B0F5007F0AD14FEAAA
:101770001A2000EB80004000A168B0FBF1F0401D92
:1017800086B20BE04FEA4B10BAFBF0F000EB8000A2
:101790004000A168B0FBF1F0401D86B20A20B6FB04
:1017A000F0F606F00108A6EB0800C0F34F074FF66D
:1017B000FF7000EA0828022F01DBFF2F02DD02275D
:1017C0004FF00008E08840EA080038432884A088E9
:1017D000A1890843618808432188084340F40060D8
:1017E00040EA0909A5F81C9005B0BDE8F08F00217A
:1017F000018041808180C180018141818181C181DD
:101800000721018270470021018041808180C180D1
:101810000221816000218181704721B1028842F05C
:101820004002028004E002884FF6BF731A40028033
:10183000704721B1828B42F48062828304E0828B04
:101840004FF6FF331A408283704730B500240023DF
:101850000C110125A540ABB21AB185881D438580C6
:1018600002E085889D43858030BD1AB183880B4393
:10187000838002E083888B43838070478181704737
:10188000014688897047A1F57E42FF3A04D002885C
:1018900042F48072028004E002884FF6FF631A402F
:1018A0000280704721B1828842F00402828004E005
:1018B00082884FF6FB731A408280704702884FF28D
:1018C000FF731A40028002880A4302807047018831
:1018D00041F480510180704721B1028842F40052E6
:1018E000028004E002884DF6FF731A4002807047C0
:1018F00002460020012901D0108B00E0908A704739
:101900000146088A7047B1F5804F04D1028842F43D
:101910008042028004E002884BF6FF731A40028086
:1019200070470246002013890B4201D0012000E0DD
:1019300000207047CA4302817047F0B5024600207C
:1019400000240023002501F00F070126BE40B4B299
:101950000B1101269E40B3B2968806EA030516894C
:10196000264202D00DB1012000E00020F0BD10B5EC
:10197000002201F00F040123A3409AB2D343038154
:1019800010BD00000030014000380040003C004025
:1019900010B50446FB48844209D101218803FFF7B2
:1019A00023FE00214FF48040FFF71EFE32E0F64890
:1019B000844209D101214804FFF723FE00214FF49E
:1019C0000030FFF71EFE25E0F048844209D10121D6
:1019D0008804FFF716FE00214FF48020FFF711FE68
:1019E00018E0EB48844209D10121C804FFF709FE41
:1019F00000214FF40020FFF704FE0BE0E54884428D
:101A000008D101210805FFF7FCFD00214FF48010EB
:101A1000FFF7F7FD10BD2DE9F04786B005460E46ED
:101A20000024A24600BFA1460027B08900B100BF34
:101A30002F462C8A4CF6FF700440F08804432C8219
:101A4000AC894EF6F3100440B0883189084371899F
:101A500008430443AC81AC8A4FF6FF400440B08990
:101A60000443AC8201A8FFF738FDC648874202D183
:101A7000DDF810A001E0DDF80CA0A88910F4004FFB
:101A800008D00AEBCA0000EB0A1031684900B0FB2D
:101A9000F1F807E00AEBCA0000EB0A103168890090
:101AA000B0FBF1F86420B8FBF0F0040120096421D8
:101AB00001FB1089A88910F4004F08D0322000EBF8
:101AC000C900B0FBF1F000F00700044308E0322049
:101AD00000EB09106421B0FBF1F000F00F000443AB
:101AE0002C8106B0BDE8F0874FF41651016000214B
:101AF0008180C18001810C21418100218181704759
:101B000010B502460020108A4FF2FF0318400B88E0
:101B10004C8823438C882343CC882343184310826A
:101B200010BD0021018041808180C180704721B1BA
:101B3000828942F40052828104E082894DF6FF736B
:101B40001A4082817047F0B5034600240026002524
:101B50000020A1F510676A3F00D100BF1846C1F30D
:101B6000421401F01F06012707FA06F5012C01D1E6
:101B70000C3004E0022C01D1103000E014301AB116
:101B800007682F43076002E00768AF430760F0BDB6
:101B90001AB1838A0B43838202E0838A8B43838258
:101BA0007047028A4FF6F0731A400282028A0A4393
:101BB0000282704782894FF2FF731A4082818289C4
:101BC0000A438281704721B1828942F002028281F8
:101BD00004E082894FF6FD731A4082817047028AC1
:101BE0004FF6DF731A400282028A0A43028270476C
:101BF00021B1028A42F48042028204E0028A4BF65A
:101C0000FF731A4002827047C1F308028280704756
:101C100001468888C0F308007047818941F00101BE
:101C200081817047028BD2B20283028B42EA012289
:101C300002837047028B02F47F420283028B0A43C5
:101C40000283704721B1828A42F02002828204E03E
:101C5000828A4FF6DF731A408282704721B1828AEE
:101C600042F01002828204E0828A4FF6EF731A403B
:101C70008282704721B1828A42F00802828204E0A7
:101C8000828A4FF6F7731A408282704721B18289A7
:101C900042F40042828103E08289C2F30E02828113
:101CA000704721B1828A42F40062828204E0828A13
:101CB0004FF2FF731A4082827047828A4FF6FB739D
:101CC0001A408282828A0A438282704721B1828AC4
:101CD00042F00202828204E0828A4FF6FD731A40CB
:101CE0008282704702460020B1F5007F00D100BF1C
:101CF00013880B4201D0012000E00020704701F45E
:101D00000072B2F5007F00D100BFCA430280704765
:101D100070B502460024002300250020A1F51066BE
:101D20006A3E00D100BFC1F3421501F01F03012636
:101D300006FA03F3012D02D19689334006E0022D05
:101D400002D1168A334001E0968A33400C120126F4
:101D500006FA04F41688344013B10CB1012000E0F7
:101D6000002070BD10B500220023A1F510646A3C6C
:101D700000D100BF0A1201249440A3B2DC430480C6
:101D800010BD000000380140004400400048004001
:101D9000004C00400050004010B50446FE4884420C
:101DA00008D10121C014FFF71FFC0021E014FFF748
:101DB0001BFCC4E0B4F1804F08D101210846FFF7B5
:101DC00020FC00210120FFF71CFCB8E0F34884420E
:101DD00008D101210220FFF714FC00210220FFF7A7
:101DE00010FCACE0EE48844208D101210420FFF74A
:101DF00008FC00210420FFF704FCA0E0E94884422D
:101E000008D101210820FFF7FCFB00210820FFF783
:101E1000F8FB94E0E448844208D101211020FFF748
:101E2000F0FB00211020FFF7ECFB88E0DF48844244
:101E300008D101212020FFF7E4FB00212020FFF73B
:101E4000E0FB7CE0DA48844208D101214014FFF72E
:101E5000CBFB00216014FFF7C7FB70E0D54884423C
:101E600009D10121C804FFF7BFFB00214FF4002076
:101E7000FFF7BAFB63E0D048844209D1012108058D
:101E8000FFF7B2FB00214FF48010FFF7ADFB56E0E7
:101E9000CA48844209D101214805FFF7A5FB00216A
:101EA0004FF40010FFF7A0FB49E0C548844208D179
:101EB00001214020FFF7A5FB00214020FFF7A1FBF7
:101EC0003DE0C048844208D101218020FFF799FB02
:101ED00000218020FFF795FB31E0BB48844208D108
:101EE00001218015FFF78DFB0021A015FFF789FB6D
:101EF00025E0B648844209D101210804FFF774FBAC
:101F000000214FF48030FFF76FFB18E0B0488442A7
:101F100009D101214804FFF767FB00214FF400308D
:101F2000FFF762FB0BE0AB48844208D10121880433
:101F3000FFF75AFB00214FF48020FFF755FB10BD3F
:101F400000220288944B98420ED0994B98420BD0B5
:101F5000B0F1804F08D0914B984205D0904B9842F9
:101F600002D0904B984204D14FF68F731A404B88A1
:101F70001A438D4B984207D08C4B984204D04FF6B1
:101F8000FF431A40CB881A4302808B8883850B88D5
:101F90000385814B98420BD0854B984208D08B4BE0
:101FA000984205D08A4B984202D08A4B984201D180
:101FB0000B7A038601238382704770B500240022C8
:101FC0000023058C4FF6FE7635400584028C83880D
:101FD000048B4FF68F752C40B51E2C400D882C437A
:101FE000751E2A400D892A434D882A436A4DA8420E
:101FF0000BD06F4DA84208D0744DA84205D0744D47
:10200000A84202D0734DA84213D14FF6F7752A406B
:102010004D892A434FF6FB752A408D882A434FF697
:10202000FF652B404FF6FF552B408D892B43CD8903
:102030002B4383800483CD888586028470BD70B570
:10204000002400220023058C4FF6EF7635400584EE
:10205000028C8388048B48F6FF752C404FF6FF45B1
:102060002C400D884FF6FF7606EA05252C434FF6E7
:10207000DF752A400D8906EA05152A434D8806EAD0
:1020800005152A43444DA84202D0494DA8421DD10E
:102090004FF67F752A404D894FF6FF7606EA051503
:1020A0002A434FF6BF752A408D8806EA05152A4354
:1020B0004FF6FF352B404FF2FF752B408D8906EA16
:1020C00085052B43CD8906EA85052B438380048350
:1020D000CD880587028470BD70B5002400220023DE
:1020E000058C4FF6FF6635400584028C8388848B0F
:1020F0004FF68F752C404FF6FC752C400D882C4305
:102100004FF6FF552A400D894FF6FF7606EA052562
:102110002A434D8806EA05252A431F4DA84202D0CE
:10212000234DA8421DD14FF2FF752A404D894FF62D
:10213000FF7606EA05252A434FF6FF352A408D88AB
:1021400006EA05252A434EF6FF752B404DF6FF752E
:102150002B408D8906EA05152B43CD8906EA051526
:102160002B4383808483CD888587028470BD70B5BE
:10217000002200230024058C4EF6FF7635400584AE
:10218000038C8488828B48F6FF752A404FF6FF4502
:102190002A400D8820E00000002C0140000400408F
:1021A00000080040000C00400010004000140040F7
:1021B00000340140004C01400050014000540140F7
:1021C00000180040001C004000200040004001407A
:1021D00000440140004801404FF6FF7606EA05251D
:1021E0002A434DF6FF752B400D8906EA05352B4332
:1021F0004D8806EA05352B43FA4DA84202D0FA4D28
:10220000A84208D14BF6FF752C408D894FF6FF761A
:1022100006EA85152C4384808283CD88A0F840503F
:10222000038470BD828B4FF2FF331A408283828B0E
:102230004FF6FF7303EA01231A4382837047F0B518
:102240000C461546002200210026078C4EF6FF7C26
:1022500007EA0C070784828B018C4FF6FF7707EAA9
:10226000043640F6FF473A404FF6FF7707EA052766
:102270003A434FF6FF7707EA03373A43D94FB8425C
:102280000ED0D94FB8420BD0B0F1804F08D0D74F05
:10229000B84205D0D64FB84202D0D64FB84206D188
:1022A0004DF6FF77394046F48057394305E047F64D
:1022B000FF57394044F48057394382830184F0BD8D
:1022C000828B4FF6F3731A408283828B0A43828398
:1022D0007047F0B50C461546002200210026078CF9
:1022E0004FF6FF6C07EA0C070784828B018C4FF6D0
:1022F000FF7707EA04264FF60C773A404FF6FF7750
:1023000007EA03172F433A43B64FB8420ED0B64FF1
:10231000B8420BD0B0F1804F08D0B44FB84205D0CE
:10232000B34FB84202D0B34FB84206D14FF6FF5771
:10233000394046F48077394305E04FF2FF57394082
:1023400044F48077394382830184F0BD028B4FF2DD
:10235000FF331A400283028B4FF6FF7303EA012317
:102360001A4302837047F0B50C461546002200213F
:102370000026078C4FF6EF7C07EA0C070784028BD8
:10238000018C4FF6FF7707EA041640F6FF473A4004
:102390004FF6FF7707EA03373A434FF6FF7707EA2E
:1023A00005273A438F4FB8420ED08F4FB8420BD01B
:1023B000B0F1804F08D08D4FB84205D08C4FB84255
:1023C00002D08C4FB84206D14FF6DF77394046F045
:1023D0001007394305E04FF65F77394044F01007A6
:1023E000394302830184F0BD028B4FF6F3731A4028
:1023F0000283028B0A4302837047F0B50C461546F0
:1024000000220021068C4FF6FE773E400684028BA8
:10241000018C4FF60C7632407E1C06EA03162E43E2
:102420003243704EB0420ED06F4EB0420BD0B0F17E
:10243000804F08D06D4EB04205D06D4EB04202D0F4
:102440006C4EB04206D14FF6FD76314044F00106A5
:10245000314305E04FF6F576314044F00106314353
:1024600002830184F0BD70B505460C465D48854287
:102470000ED05D4885420BD0B5F1804F08D05B4847
:10248000854205D05A48854202D05A48854200D13B
:1024900000E000BF208850B92389A28861882846BF
:1024A000FFF7ABFFE1882846FFF79EFF25E0208875
:1024B00004280AD12389A28861882846FFF753FFA0
:1024C000E1882846FFF742FF17E0208808280AD154
:1024D0002389A28861882846FFF7FBFEE188284609
:1024E000FFF7EEFE09E02389A28861882846FFF7FE
:1024F000A6FEE1882846FFF795FE70BD2DE9F04164
:1025000005460C4600260127608808B9022600E02F
:102510000026A088012801D1022700E00127208899
:10252000A0B92389A28861882846FFF766FFE18861
:102530002846FFF759FF23893A4631462846FFF7D8
:1025400012FFE1882846FFF701FF13E02389A288E4
:1025500061882846FFF707FFE1882846FFF7F6FE67
:1025600023893A4631462846FFF747FFE188284647
:10257000FFF73AFFBDE8F0810A884B881A438B8841
:102580001A43CB881A430B891A434B891A438B8908
:102590001A43A0F8442070474FF6FF718180002154
:1025A0000180C1804180017270470021018041801B
:1025B0008180C180018141818181C1817047002179
:1025C00001804180012181800021C180018170470B
:1025D0000021018041808180C18001814181818110
:1025E00070470000002C014000340140000400400E
:1025F00000080040000C004021B1028842F00102B6
:10260000028004E002884FF6FE731A400280704791
:1026100031B1B0F8442042F40042A0F8442005E073
:10262000B0F84420C2F30E02A0F8442070471AB15B
:1026300083890B43838102E083898B4383817047C5
:102640008182704741EA0203A0F8483070471AB10E
:1026500083890B43838102E083898B4383817047A5
:1026600001894FF6F8721140018170470A46002136
:1026700001894FF68F73194011430181704730B5BE
:1026800004460D4629462046FFF7F0FF208940F01A
:102690000700208130BD2DE9F04104460D46164665
:1026A0001F46602D06D13B46012231462046FFF7EA
:1026B0005AFE05E03B46012231462046FFF79DFECB
:1026C00029462046FFF7D2FF208940F007002081ED
:1026D000BDE8F08130B50C4600210189C9B24FF642
:1026E000FF7505EA0325154325432943018130BDC4
:1026F0002DE9F04105460E4617469846002443460C
:102700003A4631462846FFF7E5FF2C894FF6F87028
:10271000044044F007044FF68F70044044F0700406
:102720002C81BDE8F081F0B504460D4616461F46E3
:102730003B46324629462046FFF7CCFF208940F42D
:1027400080402081F0BD0185828270470A460021C9
:1027500001884FF68F731940114301807047F0B51F
:102760000C4615461E460021002200230189028BDB
:10277000038C4FF6F877394021434FF6FC473A4037
:1027800040F201173A434FF6DD773B404FF6FF77B3
:1027900007EA06172F433B43018102830384F0BD00
:1027A0000A460021018B4FF68F73194011430183B4
:1027B00070470A460021018B48F6FF7319404FF617
:1027C000FF7303EA02231943018370470A4600217D
:1027D000818B4FF68F7319401143818370470A46EE
:1027E0000021818B48F6FF7319404FF6FF7303EA0F
:1027F000022319438183704721B1028842F080028D
:10280000028004E002884FF67F731A40028070470E
:1028100021B1828842F00402828004E082884FF66F
:10282000FB731A408280704721B1828842F008020F
:10283000828004E082884FF6F7731A4082807047E6
:1028400021B1828842F00102828004E082884FF642
:10285000FE731A40828070470A460021018B4FF6B2
:10286000F77319401143018370470A460021018B19
:102870004FF2FF7319404FF6FF7303EA0223194327
:10288000018370470A460021818B4FF6F773194088
:102890001143818370470A460021818B4FF2FF73F9
:1028A00019404FF6FF7303EA0223194381837047EF
:1028B0000A460021018B4FF6FB7319401143018337
:1028C00070470A460021018B4FF6FF3319404FF63F
:1028D000FF7303EA02231943018370470A4600216C
:1028E000818B4FF6FB7319401143818370470A4671
:1028F0000021818B4FF6FF3319404FF6FF7303EA37
:1029000002231943818370470A460021018B4FF649
:102910007F7319401143018370470A460021018BE0
:10292000C1F30E014FF6FF7303EA0223194301833B
:1029300070470A460021818B4FF67F73194011437F
:10294000818370470A460021818BC1F30E014FF647
:10295000FF7303EA02231943818370470A4600216B
:10296000018C4FF6FD7319401143018470470A46EC
:102970000021018C4FF6F773194011430184704711
:102980000A460021018C4FF6DF7319404FF6FF73A2
:1029900003EA02131943018470470A460021018C9F
:1029A0004FF67F7319404FF6FF7303EA0213194382
:1029B000018470470A460021018C4FF6FF531940ED
:1029C0004FF6FF7303EA02231943018470470A4656
:1029D0000021018C4FF2FF7319404FF6FF7303EA99
:1029E00002231943018470470A460021018C4DF6E9
:1029F000FF7319404FF6FF7303EA02331943018452
:102A0000704730B5002301248C40A3B2048C9C4352
:102A10000484048C02FA01F5ADB22C43048430BD69
:102A200030B5002304248C40A3B2048C9C4304845E
:102A3000048C02FA01F5ADB22C43048430BD70B5AC
:102A40000346002000241846183001258D40ACB202
:102A50001D8CA5431D8409B1082909D100EB610033
:102A6000056825F0700505600568154305600EE0F2
:102A70000D1FC5F34E052844056825F4E0450560A3
:102A800005684FF6FF7606EA02263543056070BDFD
:102A900021B1028842F00202028004E002884FF66F
:102AA000FD731A400280704721B1028842F004028F
:102AB000028004E002884FF6FB731A4002807047E0
:102AC00021B1828842F08002828004E082884FF641
:102AD0007F731A408280704702884FF6F7731A405E
:102AE000028002880A430280704782884FF68F7303
:102AF0001A40828082880A438280704702894FF69A
:102B0000F8731A40028102890A43028170470289E0
:102B10004FF67F731A40028102890A43028170478F
:102B2000818470478185704781867047018770472F
:102B300081877047A0F84010704702884FF6FF4326
:102B40001A40028002880A43028070470146888E3C
:102B500070470146088F70470146888F70470146CD
:102B6000B1F8400070470146888C70470146088DD7
:102B7000704702460020138A0B4201D0012000E07A
:102B800000207047CA430282704730B502460020D9
:102B900000230024158A05EA0103958905EA01044A
:102BA00013B10CB1012000E0002030BDCA43028205
:102BB0007047000001684FF6FE721140016000216D
:102BC000016041608160C1608C49884208D18B49B5
:102BD0000839496841F00F01884A083A51608AE093
:102BE00086491431884208D184490839496841F03E
:102BF000F001824A083A51607DE0804928318842DC
:102C000008D17E490839496841F470617B4A083A25
:102C1000516070E079493C31884208D177490839E0
:102C2000496841F47041754A083A516063E073495C
:102C30005031884208D171490839496841F47021FE
:102C40006E4A083A516056E06C496431884208D1B6
:102C50006A490839496841F47001684A083A516084
:102C600049E066497831884208D1644908394968A1
:102C700041F07061614A083A51603CE06049884225
:102C800006D1011F096841F00F01021F116032E0F7
:102C90005B491431884208D15949091F096841F03C
:102CA000F001574A121F116025E05549283188422A
:102CB00008D15349091F096841F47061504A121F35
:102CC000116018E04E493C31884208D14C49091F37
:102CD000096841F470414A4A121F11600BE04849EB
:102CE0005031884207D14649091F096841F47021D3
:102CF000434A121F1160704710B50022026847F660
:102D0000F0739A430C6A8B6823430C6923434C6924
:102D100023438C692343CC6923434C6A23438C6A45
:102D200023431A430260CB6843600B6883604B689F
:102D3000C36010BD0021016041608160C16001611C
:102D400041618161C161016241628162704721B16B
:102D5000026842F00102026004E002684FF6FE736E
:102D60001A40026070471AB103680B43036002E027
:102D700003688B43036070474160704701464868B1
:102D800080B2704701460020002211F0805F03D01E
:102D90001B4B083B1A6802E0184B083B1A680A42B2
:102DA00001D0012000E00020704710F0805F03D0C8
:102DB0001349091F086002E010490839486070474C
:102DC00001460020002211F0805F03D00C4B083B2D
:102DD0001A6802E0094B083B1A680A4201D0012038
:102DE00000E00020704710F0805F03D00449091F05
:102DF000086002E001490839486070470800024055
:102E0000080402400CB50020019000906B48006857
:102E100040F480306949086000BF6848006800F4E9
:102E2000003000900198401C0190009818B901985A
:102E3000B0F5A06FF1D16148006810F4003F02D0F6
:102E40000120009001E0002000900098012842D16C
:102E50005B48006840F01000594908600846006867
:102E600020F0030008600846006840F00200086097
:102E700052484068514948600846406848600846E2
:102E8000406840F4806048600846406820F47C1048
:102E900048600846406840F4E8104860084600680A
:102EA00040F08070086000BF4448006810F0007F68
:102EB000FAD04248406820F0030040494860084684
:102EC000406840F00200486000BF3C48406800F0A5
:102ED0000C000828F9D10CBD10B5FFF793FF10BD09
:102EE00010B53648006840F00100344908600846D3
:102EF0004068344908403149486008460068324912
:102F000008402E4908600846006820F480200860C8
:102F10000846406820F4FE0048604FF41F008860B7
:102F2000FFF7DAFF4FF000602849086010BD10B5C8
:102F3000002100200022214B5B6803F00C0121B12D
:102F4000042906D0082928D107E0214B214C236011
:102F500027E01F4B1F4C236023E0184B5B6803F4F2
:102F60007010164B5B6803F48032022303EB904031
:102F700022B9194B4343174C23600DE00F4B5B689C
:102F800013F4003F04D0144B4343124C236003E07E
:102F90000F4B43430F4C236003E00D4B0D4C23605C
:102FA00000BF00BF054B5B68C3F303130B4CE15C30
:102FB000084B1B68CB40074C236010BD001002403B
:102FC000002002400000FFF8FFFFF6FE08ED00E0E1
:102FD00000127A003000002000093D00340000207B
:102FE0000648804706480047FEE7FEE7FEE7FEE7A3
:102FF000FEE7FEE7FEE7FEE7FEE7FEE7E12E00085C
:10300000ED000008704710B50A20FDF789F84FF46D
:103010008051FC48FEF7C3F80A20FDF781F810BD87
:1030200070B5002501225103F648FEF7BCF80024D4
:1030300016E04FF48041F348FEF797F818B10120ED
:10304000A040284345B200224FF40051ED48FEF75E
:10305000AAF801225103EB48FEF7A5F8601C44B220
:10306000082CE6DBE8B270BD70B5054601225103BD
:10307000E448FEF798F800241CE000224FF40051C9
:10308000E048FEF790F80120A040284205D0012238
:10309000D103DC48FEF787F805E000224FF4004139
:1030A000D848FEF780F801225103D648FEF77BF896
:1030B000601C44B2082CE0DB70BD10B50A20FDF79F
:1030C0002FF84FF48051CF48FEF76BF80A20FDF738
:1030D00027F810BD10B5FFF7F0FF0120FDF72FF81E
:1030E0000220FFF7C1FFFFF79BFF0446FFF78BFFAE
:1030F000204610BD70B505460E46FFF7DEFF0120E5
:10310000FDF71DF80320FFF7AFFF002407E00120C3
:10311000FDF715F8FFF784FF2855601CC4B2B442D0
:10312000F5DBFFF770FF70BD1CB506216846FFF7A1
:10313000E1FF0622B449684600F041FF08B90120CA
:103140001CBD0020FCE72DE9F04106460C46601C42
:10315000C4B2FFF7B2FF0120FCF7F1FF0120FFF737
:1031600083FFFF270020FFF77FFF0020FFF77CFF92
:10317000FF20FFF779FF2046FFF776FFE143491C68
:10318000C8B2FFF771FFD420FFF76EFF07F1D4003C
:10319000C7B2002507E0705DFFF766FF705D384439
:1031A000C7B2681CC5B2601EA842F4DCF943C8B2BD
:1031B000FFF75AFF0020FFF757FFFFF724FFBDE896
:1031C000F0812DE9F04106460F46144600253946A8
:1031D0003046FFF7B8FF0BE03CB105F10A0085B2BD
:1031E000A54202DD0020BDE8F0810120FCF7A7FF29
:1031F000FFF770FF0128EFD1FFF796FF08B9002015
:10320000F1E700250AE034B105F10A0085B2A542D4
:1032100001DD0020E7E70120FCF791FFFFF75AFFEF
:103220000128F0D100BFDEE710B5FFF746FF0A2006
:10323000FCF785FF0220754908706422012173485C
:10324000FFF7BFFF10BD70B506460D46002415E020
:103250006FA000F027FF305D0F2802DC6DA000F0AA
:1032600021FF315D6CA000F01DFF012D05D9681E06
:10327000A04202D069A000F015FF641CAC42E7D365
:1032800067A000F00FFF70BD70B505460E46002424
:1032900012E0285D0F2802DC5EA000F003FF295D2C
:1032A0005DA000F0FFFE012E05D9701EA04202D0E5
:1032B0005AA000F0F7FE641CB442EAD359A000F013
:1032C000F1FE00240BE0285D1F2803DC56A000F06F
:1032D000E9FE03E0295D55A000F0E4FE641CB44261
:1032E000F1D34FA000F0DEFE70BD10B502204749BB
:1032F0000870642201214548FFF763FF08B90020E8
:1033000010BD0C214148FFF7F5FE062248493F4811
:1033100000F055FE08B10020F2E73C488479240211
:10332000C079044324023948007A04432402374810
:10333000407A04432046E3E710B5044644F0140401
:103340000E203249087044F08000487000208870D8
:10335000642203212D48FFF734FF08B9002010BD77
:1033600008212A48FFF7C6FE284840790F2801D1D6
:103370000120F4E70020F2E710B50C202349087083
:10338000642201212148FFF71CFF08B9002010BD6D
:103390000B211E48FFF7AEFE1C488079F7E710B5F9
:1033A00014201A49087001204870142088700120E8
:1033B000C870642204211548FFF703FF08B90020F4
:1033C00010BD08211148FFF795FE104840791528D7
:1033D00001D10120F4E70020F2E710B504463220C5
:1033E0000A49087005204870FF2088700120C870C5
:1033F0000846047164220521FFF7E3FED0B90020DE
:1034000010BD0000000C014044000020A00100207D
:103410003078000030000000257800002000000017
:103420000D0A0000202000002E000000256400008E
:103430004A000020012010BD2DE9F04105460E464E
:1034400017464A20F74908700120487008468570E1
:1034500064220321FFF7B5FE10B90020BDE8F0811A
:103460001421F048FFF746FEEE48C079012801D04C
:103470000020F3E7EB4890F809804FF6FF7000EA70
:103480000828E848807A40EA0808E648007B387057
:10349000002406E004F10D00E249085C3055601C90
:1034A000C4B2E048007BA042F4DC0120D6E701462C
:1034B000802906D211F0030F01D1012070470020AE
:1034C000FCE711F00F0F01D10120F7E70020F5E72D
:1034D0000146802907D2481C10F0030F01D10120BA
:1034E00070470020FCE7481C10F00F0F01D10120AD
:1034F000F6E70020F4E72DE9F04706460D461746AB
:103500009846DDF82090C848D9F800100160B9F855
:10351000041081802A463146C44800F025FDC44885
:1035200005704020BF49087001204870B8F1000FB5
:1035300001D0612000E06020BA498870CF70084651
:10354000B9490A68426089880181002407E0B748C8
:10355000015D04F10A00B34A1154601CC4B2B448BE
:1035600000788442F3DBB24800780A30C1B26422AA
:10357000AC48FFF726FE10B90020BDE8F0870C210B
:10358000A848FFF7B7FDA748C07908B10020F4E7C5
:103590000120F2E770B504460D464020A1490870AD
:1035A00001204870302088700846C47064220421CD
:1035B000FFF707FE08B9002070BD1A219948FFF7F0
:1035C00099FD9848C07940B19AA000F06BFD1A218E
:1035D0009448FFF759FE0020EEE710229149083188
:1035E000284600F0C1FC0120E6E770B504460D4610
:1035F00040208C49087001204870A020887008463F
:10360000C47010222946001D00F0AEFC6422142173
:103610008448FFF7D6FD08B9002070BD0120FCF7F3
:103620008EFD1A217F48FFF765FD0120F5E700B503
:103630008DB085A1D1E90023D1E90201CDE90923AB
:10364000CDE90B0184A3D3E90021D3E90203CDE93D
:103650000703CDE9052184A30FCBCDE90323CDE9F1
:10366000010109A90120FFF7C0FF10B900200DB02A
:1036700000BD05A90220FFF7B8FF08B90020F6E752
:1036800001A90320FFF7B1FF08B90020EFE70120EF
:10369000EDE7F0B591B005460F461646304600F00E
:1036A00087FCC4B274A1D1E90023D1E90201CDE9BC
:1036B0000D23CDE90F01002009900A900B900C908A
:1036C00005900690079008906FA3D3E90020D3E9F6
:1036D0000213CDE90313CDE90120012D01DB0F2DEC
:1036E00002DD002011B0F0BD012C01DB262C01DD34
:1036F0000020F7E7601DC0B28DF83700601CC0B233
:103700008DF83A008DF83C70062C0BDC22463146D1
:103710000DF13D0000F028FCFE210DAA04F1090086
:10372000115450E0072C09D1224631460DF13D00DD
:1037300000F01AFCFE208DF8240044E0072C01DC88
:10374000162C12DC3068CDF83D00B088ADF8410091
:10375000B0798DF84300E21FF11D09A800F004FCC8
:10376000FE21E01F09AA11542DE0172C11D1306859
:10377000CDF83D00B088ADF84100B0798DF8430038
:10378000E21FF11D09A800F0EFFBFE208DF81400E8
:1037900019E03068CDF83D00B088ADF84100B0794F
:1037A0008DF843001022F11D09A800F0DDFBA4F103
:1037B000180206F1170105A800F0D6FBFE21A4F1BE
:1037C000160005AA1154A906080E0DA9FFF70DFF52
:1037D00008B9002086E7012101EB8501C8B209A9DB
:1037E000FFF703FF08B900207CE7022101EB850108
:1037F000C8B205A9FFF7F9FE08B9002072E7032156
:1038000001EB8501C8B201A9FFF7EFFE08B900205E
:1038100068E7012066E770B504460D46402C3BDBA7
:10382000002070BDA00100205C000020540000209A
:103830005B000020556E6578706563746564207266
:103840006573706F6E736500140103E103E103E1BA
:1038500003E103E103E103E103E103E103E103E148
:1038600003E103E103E103E1A0A1A2A3A4A578770A
:1038700088C1FFFFFFFFFFFF00000300D1010055DB
:103880000000000000000000D3F7D3F7D3F77F0754
:103890008840FFFFFFFFFFFF40200F490870012015
:1038A0004870302088700846C47064220421FFF7F5
:1038B00088FC08B9002070BD1A210748FFF71AFCE0
:1038C0000548C07918B904488068286001E00020E4
:1038D000F1E70120EFE70000A001002002460B788D
:1038E00083EA020080EA0013D8B20B881B1283EA35
:1038F000002383EAC00383EA20130B8070472DE97D
:10390000F04707460E469146984600BF07EB071062
:10391000FE4901EB00100546384600F08BFA0446DC
:103920004FF0000A00202070E0780A2811D2DFE86A
:1039300000F0050611302838404D5E7F00BFFE2E96
:1039400007D10220E0700020E870AE70284600F039
:1039500097FA91E0207850B16078401C6070A078B0
:10396000401CA070002020700120E07008E0EE7084
:10397000002020713146284600F088FA0420E070CB
:103980007AE02E713146284600F080FA0320E0707C
:1039900072E06E713146284600F078FA0520E0703A
:1039A0006AE0AE713146284600F070FA0620E070F9
:1039B00062E0EE713146284600F068FAE87810B906
:1039C0000820E07001E00720E07055E02179481CF4
:1039D000207105F1080046543146284600F056FA99
:1039E0002079E978884201D10820E07044E0E87944
:1039F000C74A115C284600F049FA2878B04210D036
:103A0000A078401CA070002020700120E070FE2EE5
:103A10000DD10220E0700020E870284600F030FA56
:103A200005E00920E070217905F10800465423E003
:103A30002888B6EB202F10D0A078401CA070002062
:103A400020700120E070FE2E15D10220E0700020D1
:103A5000E870284600F014FA0DE001202070E070B4
:103A60002079401C05F108010E544FF48872294654
:103A7000484600F079FA00BF00BF0AF1010A207839
:103A8000012808D128796071208908B90020608157
:103A90002089401C20816079401C88F8050020891D
:103AA000A8F80800A078A8F80A000020A0702078E4
:103AB000BDE8F0872DE9F04107460E461546002186
:103AC0009448FFF744F929469248FFF755F900203A
:103AD00091494870002404E0305D90490855601C0D
:103AE00084B2AC42F8DB01218A48FFF730F9BDE827
:103AF000F08170B506460C46154624B92946304675
:103B000000F04BFA04E02A462146304600F02CFA39
:103B100070BD2DE9F04F87B07F48407800287CD0F9
:103B20007D480078002878D17B48807820B1012832
:103B30003AD0022872D1C1E001256E26784C2F467A
:103B40004FF000084FF0DC09C2464FF0040BCDF8EF
:103B500010A08DF814708DF815808DF816908DF8E2
:103B600017B003208DF81800092204A904F10800F9
:103B700000F0FAF90020E07132200923324629468C
:103B80000090204600F05DF92146664800F06BF990
:103B9000654908700846027862490020FFF78AFFED
:103BA00001205D498870D1E060480078002838D055
:103BB0005F480078042835D101256E26584C2F46E1
:103BC0005C4890F8008090F8019090F802A090F87E
:103BD00003B0ADF814708DF816808DF817908DF83D
:103BE00018A08DF819B00598A060BDF81800A08144
:103BF0009720E07184200623324629460090204613
:103C000000F01FF92146474800F02DF94649087099
:103C1000084602784349002001E098E095E0FFF76C
:103C200049FF47E042480078072843D101256E2626
:103C30003B4C2F463F4890F8008090F8019090F858
:103C400002A090F803B0007904903A4840790590BA
:103C5000384880790690ADF804708DF806808DF8AC
:103C600007908DF808A08DF809B004988DF80A0027
:103C700005988DF80B0006988DF80C00092201A913
:103C800004F1080000F070F99820E0719C200923ED
:103C9000324629460090204600F0D3F821462148BC
:103CA00000F0E1F820490870084602781D4900201C
:103CB000FFF700FF02201849887047E001256E26B3
:103CC000174C2F461C4890F80080ADF818708DF8FE
:103CD0001A80BDF8180020819DF81A00A0729A2061
:103CE000E071DE200323324629460090204600F092
:103CF000A8F821460B4800F0B6F80B4908700846B2
:103D0000027808490020FFF7D5FE17E010020020D6
:103D1000A443000844000240160000207400002064
:103D2000500600206C0700206E00002001000020DB
:103D300002000020030000201000002000207D4928
:103D4000887001207C49087000E000BF00BF07B008
:103D5000BDE8F08F70B505460C46E079962802D094
:103D6000992831D100E030E000BF002004F10801C3
:103D7000095A00BF7148018000BFA07A70490870DD
:103D80006E4800886F49098888421CD16C480078C9
:103D9000012805D1FCF76CFC01206B4908700DE08F
:103DA00067480078022809D1FCF770FC02206649B8
:103DB0000870FCF75DFC01206349087000205F4932
:103DC00008805F49087000E000BF00BF70BD2DE9AA
:103DD000F0415E48FEF7D2FFC0F164075C4800681E
:103DE0003D1A002D00DA64350DB300240AE058486E
:103DF00000682618642E00DB643E5648805D5649F4
:103E00000855641CAC42F2DB5148076000240CE00A
:103E10005148015D514B524A0020FFF770FD18B127
:103E20004F490020FFF796FF641CAC42F0DB2846A8
:103E3000BDE8F081014601EB41004A4A02EB8000F7
:103E400070472DE9FC4105460E4617461C46DDF835
:103E5000208000233A4631462846CDE9004800F04C
:103E60001DF8BDE8FC8170B505460C46E07800F110
:103E70000802A11C284600F077F8E078083070BDF1
:103E800000BF4FF6FF71018000BF704770B5044658
:103E90000D4621462846FFF721FD70BD2DE9FC5F48
:103EA00004460F4690469946DDE90C5BFE20A07063
:103EB000E570677184F806804846FFF7BBFF80799C
:103EC00020714846FFF7B6FF8079401CC6B24846CD
:103ED000FFF7B0FF8671E61C05F1050A00BF4FF63B
:103EE000FF70009000BF04E016F8010B6946FFF771
:103EF000F5FC5FEA0A00AAF101011FFA81FAF3D189
:103F0000BDF80000019001A95846FFF7E7FCBDF895
:103F10000400C1B2E27804F108008154BDF8040045
:103F20000212E078401C04F108010A5405F108006F
:103F3000BDE8FC9F16000020120000200E000020AB
:103F4000110000200C00002010000020580002404A
:103F500064000020D80000203C0100206007002001
:103F600050060020E001002040EA01039B0703D037
:103F700009E008C9121F08C0042AFAD203E011F8A8
:103F8000013B00F8013B521EF9D27047D2B201E06A
:103F900000F8012B491EFBD270470022F6E710B54E
:103FA00013460A4604461946FFF7F0FF204610BDA7
:103FB000421C10F8011B0029FBD1801A704730B554
:103FC00005460020034600E05B1C934205D2EC5CF2
:103FD000C85C201A01D1002CF6D130BD2DE9F05F6C
:103FE0000546002092469B46884606468146402468
:103FF0001BE0284641464746224600F042F8534619
:104000005A46C01A914110D311461846224600F074
:1040100029F82D1A67EB01084F462246012000219E
:1040200000F020F817EB00094E41201EA4F1010416
:10403000DFDC484631462A464346BDE8F09F000093
:10404000064C074D06E0E06840F0010394E80700E5
:1040500098471034AC42F6D3FCF74CF8A44400085F
:10406000C4440008202A04DB203A00FA02F10020B0
:1040700070479140C2F1200320FA03F319439040A6
:104080007047202A04DB203A21FA02F00021704711
:1040900021FA02F3D040C2F12002914008431946B0
:1040A000704700000FB4054B10B503A9044A0298ED
:1040B00000F018F810BC5DF814FB000001010008C6
:1040C0007000002002E008C8121F08C1002AFAD1BF
:1040D00070477047002001E001C1121F002AFBD188
:1040E000704700002DE9FF4F8DB09B460F460446F8
:1040F000002638E1252801D00F9959E00025641CDD
:104100009D49A84601222378203B02FA03F0084289
:1041100002D00543641CF6E720782E2817D114F846
:10412000010F45F004052A280ED06FF02F022078E9
:10413000A0F1300109290AD808EB880102EB4101FE
:1041400000EB0108641CF2E757F8048B641C20782C
:104150006C280DD004DC4C2812D06A2811D104E060
:1041600074280DD07A280CD10AE045F4001507E038
:10417000617845F48015814202D1641C05F58015F3
:10418000641C2278692A46D008DC002A70D0582A9C
:1041900069D0632A11D0642A08D13CE0702A69D022
:1041A000732A14D0752A5CD0782A5CD00F991046F7
:1041B0005A46904706F10106D4E017F8040B8DF833
:1041C000000000208DF80100E946012003E057F8C7
:1041D000049B4FF0FF3069074FF0000501D40AE05F
:1041E0006D1C45450DDA8542FADB19F805100029EA
:1041F000F6D106E06D1C8542FCDB19F8051000299C
:10420000F8D12E4404E019F8010B5A460F99904753
:104210006D1EF8D2A6E00A200021CDE90801C5F301
:10422000025002280BD001CFC11700290EDA4FF03F
:10423000000CD0EB0C006CEB01012D2309E007F121
:10424000070727F00707F7E80201EEE72B0504D57B
:104250002B238DF82830012330E0EB072ED02023CC
:10426000F7E70A2000E010200021CDE9080109E06D
:104270007DE0FFE71020002145F00405CDE90801AD
:104280004FF00808C5F3025002281BD001CF0021CF
:104290004FF0000A2B0712D5702A19D0DDE908C3A8
:1042A0008CF0100C5CEA030C09D150EA010306D033
:1042B00030238DF828308DF8292002239A46582A79
:1042C00010D00AE0FF1D27F00707F7E80201DFE73B
:1042D00040228DF828204FF0010A28A20DF1200974
:1042E0000B9209E02AA2F9E7DDE90823FFF776FE41
:1042F0000B9B9B5C09F8013D50EA0102F4D1ADEB48
:10430000090000F120000890680701D44FF001086F
:104310000899884502DDA8EB010000E000208046F6
:10432000002506E00AA85A46405D0F999047761C82
:104330006D1C5545F6DB04E030205A460F99904736
:10434000761CB8F10001A8F10108F5DC05E019F8C8
:10435000010B5A460F999047761C0899481E089001
:104360000029F4DC641C207800287FF4C3AE11B06F
:104370003046BDE8F08F00000928010030313233AB
:104380003435363738396162636465660000000091
:10439000303132333435363738394142434445467B
:1043A00000000000327C8900EDD9687700000059D8
:1043B0000000000000000000D69FDCA81817AA909B
:1043C000437327F6B968EDF4DED409FEE61C1C84BD
:1043D000DDE80B992927D6DF8D210F036418EFEE56
:1043E0001EF0B7828200941500F37C0000001400D8
:1043F000988F00007F6A00000000000000E7B73FD0
:104400003600000000000000AF669ED0385DD3008B
:10441000000080447C00000000000000000000005C
:10442000000000000000000000000000000000008C
:10443000000000000000002AF10FFE849C71DED60F
:10444000000000000000000000000000000000006C
:10445000000000000000000000000000000000005C
:10446000000000000000000000000000000000004C
:10447000000000000000000000000000000000003C
:10448000000000000000000000000000000000002C
:1044900000000000000000000000000000CC31AA75
:1044A0002C532E00C44400080000002074000000BB
:1044B000C44000083845000874000020FC0B0000D0
:1044C000D4400008000000000000000000000100CF
:1044D00001000000000001000000000000000000DA
:1044E0000000010203040102030406070809020494
:1044F0000608000000A24A040000000000000000BE
:1045000001020304060708090000FF00FF0000FF86
:1045100006FAD503000000000000000000000000C3
:10452000000000000000000000000000000000008B
:08453000000000000000000083
:04000005080000ED02
:00000001FF
